:100000000C94CF030C9407040C9407040C9407047D
:100010000C9407040C9407040C9407040C94070434
:100020000C9407040C9407040C944B2C0C94072C90
:100030000C94482D0C9407040C9407040C940704AA
:100040000C9407040C9407040C9407040C94070404
:100050000C9407040C94242D0C9407040C940704AE
:100060000C9407040C9407040C9407040C940704E4
:100070000C9407040C9407040C9407040C940704D4
:100080000C9407040C9407040C9407040C940704C4
:100090000C9407040C9407040C9407040C940704B4
:1000A0000C9407040C9407040C94070405010980C0
:1000B000A101850319012AB700150126B700950192
:1000C00075108100C0050C0901A101850419012AE0
:1000D000A002150126A002950175108100C005013E
:1000E0000906A1018506050719E029E71500250184
:1000F0009508750181020507190029EF15002501F2
:1001000095F075018102050819012905950575010C
:100110009102950175039101C00660FF0961A1017B
:100120000962150026FF00952075088102096315F4
:100130000026FF00952075089102C005010906A15F
:1001400001050719E029E7150025019508750181CA
:10015000029501750881010507190029FF15002680
:10016000FF00950675088100050819012905950508
:1001700075019102950175039101C0000000000016
:10018000000000000000000000000000000000006F
:100190000000000000000000000000000000007EE1
:1001A0000F00D4FFFFFFC700000078000000000030
:1001B0000000002A2B2800000000000000000000C2
:1001C00000000000000029000000002C1E34202147
:1001D0002224342627252E362D3738271E1F20218E
:1001E00022232425263333362E37381F04050607ED
:1001F00008090A0B0C0D0E0F101112131415161707
:1002000018191A1B1C1D2F3130232D350405060724
:1002100008090A0B0C0D0E0F1011121314151617E6
:1002200018191A1B1C1D2F3130354CFD377A585ABE
:10023000000004E6D6B44602002101160000007456
:100240002FE5A3E002DE01395D003D8889C6543602
:10025000C3174FE4EE6FC164D1CF85F094A114AF02
:10026000AC811AC17B5947E932688C3F3808C0A776
:100270007DADC868781F7762D4AEFB2504611B434F
:100280008A0ABABD3945337BE6423E37BEBF19D232
:10029000EAD557A098A8A22237497AB44EBE3A733D
:1002A000795E663B2035A9F12680805A9EEE232296
:1002B00083FDA90D5DA741645BEC21DDE0565EC4C2
:1002C000BC0E7446A08F90FDACD703970E07E634A2
:1002D000295AEA44FF7D192CBF98D937D9DE5F3AF5
:1002E000B38A29CF6481C3F910A3B9FF4AEF852CE3
:1002F0008E541DF856EF45CE3F2E539DBF2641D359
:10030000A93EB13F16B777B4333970027853036909
:10031000FFDD47E9D7C6C358007D9BA6516E6F9E8F
:100320006145008C3FCA331572C50B661CFD09324E
:10033000C0DA6F19CD2EFC4F6F6663E14DBEE59EAE
:100340007C7A177A8518E3C2B92D591CEEE822FF92
:1003500093AB5FBEB22C4AAE85BD3915FE63B13793
:1003600014AEF69E06E918A8716577766993C6B84B
:10037000992E4BDED02443F4D53A914933118DD3D5
:10038000DDE90000000000B838006653E40A7F0091
:1003900001D502DF05000005619A83B1C467FB0245
:1003A0000000000004595A0000000001000500028E
:1003B00000010005000200060003000E000400001A
:1003C0000101010101010101010202020202020216
:1003D00002020303030303030303040404040404E9
:1003E00004050505050506060606060707070707AF
:1003F00008080808090909090A0A0A0B0B0B0C0C62
:100400000C0D0D0D0E0E0E0F0F0F101011111112FD
:100410001213131414151516161717181819191A7C
:100420001A1B1B1C1D1D1E1E1F20202122222324DF
:1004300024252626272829292A2B2C2D2D2E2F301E
:10044000313232333435363738393A3B3C3D3E3F32
:10045000404142434445464748494A4C4D4E4F501F
:10046000515354555658595A5B5D5E5F61626465DD
:100470006668696B6C6D6F7072737577787A7B7D67
:100480007E8082838587888A8C8E8F9193959698BB
:100490009A9C9EA0A2A3A5A7A9ABADAFB1B3B5B7D7
:1004A000BABCBEC0C2C4C6C9CBCDCFD1D4D6D8DBAE
:1004B000DDDFE2E4E7E9EBEEF0F3F5F8FAFDFF1437
:1004C000001A000800150017001C0018000C00128C
:1004D00000130004001600070009000A000B000DBD
:1004E000000E000F00340000001D001B0006001964
:1004F000000500110010003600370000000000E089
:100500000000002C0000002A000000E600000001AE
:1005100000010001000100010001000100010001D3
:1005200000010001000100010001000100010001C3
:1005300000010001000100000001000100010001B4
:1005400000010001000100010001000000000001A5
:100550000000000100000001000000010000000197
:100560000001000100010001000100010001000183
:100570000001000100010001000100010001000173
:100580000001000100010000000100010001000164
:100590000001000100010001000100000000000155
:1005A0000000000100000001000000010000000147
:1005B0000001000100010001000100010001000133
:1005C0000001000100010001000100010001000123
:1005D0000001000100010000000100010001000114
:1005E0000001000100010001000100000000000105
:1005F00000000001000000010000000100000001F7
:1006000000010001000100010001000100010001E2
:1006100000010001000100010001000100010001D2
:1006200000010001000100000001000100010001C3
:1006300000010001000100010001000000000001B4
:1006400000000001000000010000000100000001A6
:100650000001006D04920DC50D000002000200694A
:1006600004920DC50D0000030001006E04920DC53B
:100670000D0000040002005304920DC50DE00605B4
:100680000001006F04920DC50D0000060002005528
:1006900004920DC50D0000070002006B04920DC509
:1006A0000D0000080001007004920DC50D0000123D
:1006B0000002007104920DC50D00001300020073CA
:1006C00004920DC50D0000140001007504920DC5C3
:1006D0000D00001500000000005D06251700000950
:1006E000025B00030100A0FA0904000001030101FC
:1006F00000092111010001224000070581030800C3
:100700000109040100020300000009211101000198
:1007100022220007058203200001070503032000B1
:100720000109040200010300000009211101000178
:10073000226D000705840320000112010002000061
:1007400000084F532B610200010203011C037600D5
:10075000690061006C003A006600360034006300F6
:10076000320062003300630000001E0361006C0071
:100770007000680061006C007000680061005F003C
:1007800070006C007500730000000E034F005400F1
:10079000540049004D004F000000040309041124D7
:1007A0001FBECFEFDAE0DEBFCDBF04B603FE18C038
:1007B00080916D0590916E05A0916F05B0917005C7
:1007C0008730904BA740B04B59F410926D051092B2
:1007D0006E0510926F0510927005E0E0F8E3099540
:1007E00011E0A0E0B1E0E2E8FBE602C005900D9266
:1007F000A23DB107D9F725E0A2EDB1E001C01D92FD
:10080000AD36B207E1F70E946F2D0C949B350C9426
:100810000000E8EDF0E080818E7F80831092E2009E
:100820001092DA001092E100A0EEB0E08C918160AD
:100830008C9380818F77808319BCA7EDB0E08C9179
:100840008E7F8C9380818F7E808310923C050895EB
:100850002091E4003091E50095E6A9012091EC009B
:10086000822F817020FF06C08091E80080FF06C0C3
:1008700080E008952091E80022FD1AC080916A0569
:10088000882389F0853089F08091EB0085FD0FC0C9
:100890002091E4003091E50042175307F9F291509E
:1008A000E1F684E0089582E0089583E0089581E010
:1008B0000895EF92FF920F931F93CF937C018B01CA
:1008C0000E942804C82F811117C08091E80085FD7F
:1008D0000BC08091E8008E778093E8000E94280486
:1008E000882399F3C82F08C0F70181917F01809375
:1008F000F1000150110949F78C2FCF911F910F91F1
:10090000FF90EF900895CF93FC0180916A058430A9
:1009100001F5C091E900CF702091EC00922F917009
:1009200020FD90E8C92B82E08093E9008091E800E7
:1009300080FF0CC050E040E060E270E0CF010E9418
:1009400059048091E8008E778093E800CF70C093BF
:10095000E900CF9108958091620587FF13C08091CF
:10096000E80082FF06C08091E8008B778093E80062
:1009700004C080916A058111F2CF089580916A05C3
:100980008823D9F38091E80080FFF8CF8091E800B8
:100990008E77ECCF982F9093E900242F762F50E09C
:1009A000891731F07091EC002091ED005091F0002A
:1009B00021FD07C09F5F973071F78093E90081E0C8
:1009C00008953091EB003E7F3093EB003091ED00C5
:1009D0003D7F3093ED003091EB0031603093EB00C0
:1009E0007093EC002093ED005093F0002091EE0006
:1009F00027FDE0CF80E00895CF92DF92EF92FF9243
:100A00000F931F93CF93DF93C8EDD0E088818F7E43
:100A10008883E7EDF0E080818160808384E082BF9D
:100A200081E080933C0588818E7F888302EE10E010
:100A3000F80110821092DA0081EEC82ED12CF60156
:100A4000108288818F7788838881806888838881F5
:100A50008F7D888319BC10926A05109261051092EF
:100A6000600510925F0590EEE92EF12CF701808170
:100A70008B7F808388818160888342E060E080E0B2
:100A80000E94CA04F60180818E7F8083F8018081F4
:100A900081608083808188608083F70180818E7F80
:100AA0008083888180618883DF91CF911F910F912E
:100AB000FF90EF90DF90CF900895FC018091680542
:100AC0009091690586179707A0F06115710529F4C3
:100AD0009091E8009E779093E80090E06115710591
:100AE00051F4911108C08091E80082FF34C080E089
:100AF0000895BC01F2CF80916A058823C1F1853049
:100B0000C1F18091E80083FD30C08091E80082FD52
:100B1000EACF8091E80080FFE1CF8091F30020913F
:100B2000F200382F6115710519F02830310558F0A1
:100B300091E02830310509F090E02091E8002E770F
:100B40002093E800CBCF81918093F100615071092F
:100B50002F5F3F4FE7CF80916A05882341F08530B2
:100B600041F08091E80083FFBECF81E0089582E0EC
:100B7000089583E008950895089580913E050895AD
:100B80009C014FB7F8948091330590913405A09162
:100B90003505B09136054FBF821B930B08952FB7D3
:100BA000F8948091330590913405A0913505B0916A
:100BB00036052FBF08952091300530913105281753
:100BC000390771F09093310580933005E0912E053F
:100BD000F0912F05309721F00084F185E02D0994E4
:100BE000089520912C0530912D052817390771F0B3
:100BF00090932D0580932C05E0912E05F0912F0503
:100C0000309721F00680F781E02D09940895E09156
:100C10002E05F0912F05309721F00190F081E02D05
:100C2000099480E00895452B39F0682381E06F3FF7
:100C300009F080E08170089581E0FCCFDC016091D3
:100C40004F0480915004962F891301C00895292FD5
:100C500030E0F901EE0FFF1FE95BFB4F408151814E
:100C60004A175B07A1F487E08A9FA0018B9F500D74
:100C70001124415F5B4F81E0FA0184839613E6CF34
:100C80002F5F3F4F2370332720934F0408952F5F2A
:100C90003F4F922F9370D8CF1092AC031092AB03BA
:100CA000EFE0F4E08581811102C01482168237964C
:100CB00084E0E734F807B1F70895AF92BF92CF927E
:100CC000DF92EF92FF920F931F93CF93DF938FEFFB
:100CD0009FEF4430510508F468C04091370541FB4F
:100CE000882780F990E0880F991F42FB002700F9C0
:100CF00010E0000F111F000F111F802B912B40FBE4
:100D0000CC24C0F8D12C8C299D2943FB222720F923
:100D1000C22FE0E0DE2F53E0CC0FDD1F5A95E1F744
:100D20008C2B9D2B44FBAA27A0F9B0E0E4E0AA0F8E
:100D3000BB1FEA95E1F78A2B9B2B45FBEE27E0F9D9
:100D4000F0E0A5E0EE0FFF1FAA95E1F78E2B9F2B99
:100D500046FB222720F930E0B6E0220F331FBA9578
:100D6000E1F7822B932B47FB222720F930E03695C1
:100D7000322F222737952795822B932B20913805E8
:100D8000322F3170F32EF92A26952170B22EBB0C2A
:100D9000A82EBF28C501BB0CAA0BBB0BFB0180838F
:100DA0009183A283B38390E080E0DF91CF911F9184
:100DB0000F91FF90EF90DF90CF90BF90AF9008958C
:100DC00080915304909154049093150180931401E1
:100DD000089581152CE5920741F42091800330910C
:100DE0008103232B11F490E080E00895FA01811132
:100DF00001C0FB010994EEEEF2E08183608342833F
:100E0000339693E0EE31F907C1F70895FC01EE0F38
:100E1000FF1FE80FF91FE251FD4F618340832283DA
:100E20000895E8EEF2E0248130E1231B08F420E08D
:100E300024838091E70281608093E7020895E8EEC1
:100E4000F2E0248130E1230F08F42FEF2483809116
:100E5000E70281608093E70208959091E802937021
:100E600071F08093E9026093EA02493C08F048EC93
:100E70004093EB028091E702822B8093E702089572
:100E8000E8EEF2E0438120E1421B08F440E081817A
:100E900021E0628190E00C942D07E8EEF2E04381BE
:100EA00020E1420F08F44FEF818121E0628190E060
:100EB0000C942D07E8EEF2E0628120E1621B08F459
:100EC00060E0818121E0438190E00C942D07E8EE01
:100ED000F2E0628120E1620F08F46FEF818121E08E
:100EE000438190E00C942D07E8EEF2E0818121E04F
:100EF000438162818850990B0C942D07E8EEF2E053
:100F0000818190E021E04381628108960C942D0755
:100F10009091E802937061F081110BC094609093FE
:100F2000E802109213018091E702862B8093E7027A
:100F30000895863010F09461F2CF880F880F982BB7
:100F4000EECF8091E80286958695815009F485E080
:100F500061E00C9488078091E802869586958F5F02
:100F6000863008F081E061E00C9488070C94FB0661
:100F70000C940607AF92BF92CF92DF92FF920F932D
:100F80001F93CF93DF93362F472FE82FF0E0E154E4
:100F9000FC4F71110FC0E4918E2F2E2F6E2F722FE8
:100FA000DF91CF911F910F91FF90DF90CF90BF9075
:100FB000AF900895C72FD0E02491F22E022F10E0B9
:100FC00056E0659FC0011124EFEFF0E0BF010E94E1
:100FD000EA34832F90E0880F991F35E5369FD001C2
:100FE000379FB00D11248A1B9B0B982F990F980FD8
:100FF0006F01CC1ADD0AC09ED001C19EB00DD09EFB
:10100000B00D11248B2F499FA0011124452F552786
:101010006F01C41AD50AC09EA001C19E500DD09E7A
:10102000500D11245F01A91AB108AC9E6001AD9E5C
:10103000D00CBC9ED00C1124CD2CDD24EC19FD0964
:10104000E09FE001E19FD00DF09FD00D1124ED2F26
:1010500062307105A1F050F46115710509F49ECF5D
:101060006130710581F0EB2F852F98CF64307105C9
:1010700069F080F06630710509F490CFF4CFE22F6B
:101080002B2F8D2F8BCFE22F252F88CFEB2F822F69
:101090002D2F84CF2B2F8F2DE52F80CF80E008952B
:1010A000F894E82FE295EF70F0E031A1282F2F702F
:1010B00081E090E001C0880F2A95EAF7982F90957B
:1010C000932391A392A1892B82A378940895909160
:1010D000370592FF06C0282F28712830F9F4877F42
:1010E000846093FF06C0282F28712831F1F4877E91
:1010F00084612091380520FF06C0382F38713830C0
:10110000D9F4877F816021FF06C0282F28712831FC
:10111000D1F4877E816194FD877E0895282F247104
:101120002430F9F68B7F8860DCCF282F247124319E
:1011300001F78B7E8861DDCF382F3171313019F79F
:101140008E7F8860E0CF282F2171213121F78E7E9C
:101150008861E1CFCF93DF93EC0182389105A9F14B
:10116000D8F58133910509F496C048F58932910587
:1011700009F48AC08A9709F495C0C11522E5D207FF
:1011800008F0B6C0C11531E5D30708F026C1C83E46
:10119000D10508F09CC0C03ED10560F5C83AD10524
:1011A00008F087C0C53AD10508F0EFC0C130D105BD
:1011B00009F12097F9F0C430D105E0F440C085333F
:1011C000910509F45AC0C997C1F68091370583701B
:1011D00089F0C0EED0E00EC0833E910599F170F425
:1011E000803E910501F1823E910539F680913705E7
:1011F00082FD21C0CE01DF91CF910895863E9105F9
:1012000061F1873E910571F1843E910509F0B5CFFA
:101210008091380581FFEECF80913705C7EED0E091
:1012200084FD0DC0E7CF8091370580FD07C1909107
:10123000380590FFDFCFC3EED0E084FFDBCFD0E0F6
:10124000C0E0D8CF8091370582FDFBC09091380572
:1012500090FDBFCF84FFCECFF2CF8091370583FDC5
:10126000DDCFC8CF8091370583FDEEC09091380562
:1012700091FFF0CFC4EED0E0BDCF8091370585FF60
:10128000B9CFC9E2D0E0B6CF8091370585FFB2CFA4
:10129000C5E3D0E0AFCF8091370586FFABCFCAE280
:1012A000D0E0A8CF8091370586FFA4CFC1E3D0E07E
:1012B000A1CFCF3BD10518F6C85AD0E0CC0FDD1F27
:1012C000C95DDE4F0990D881C02DD46493CFC1157C
:1012D00040E5D40708F064C0C11580E4D80708F0E1
:1012E0005CC0CE019A9581159F4108F483CFA7CFAA
:1012F000C11536E5D30718F5C11545E5D40708F043
:1013000084C0C11584E5D80708F07AC09C2F969553
:1013100096959E0123703327C115D34508F462C00A
:10132000C1E0D0E002C0CC0FDD1F2A95E2F730E229
:10133000939FC0011124C82BD92BDA685BCFC1154C
:101340008AE5D80778F4C11599E5D90708F068C08F
:10135000C11528E5D20708F472CFDC2FCC27C06F67
:10136000D06A48CFCE0190568115904208F067CFE1
:101370008D2F8F710E94670890E0982F882788270B
:101380009F719C012C2BE90149C0C55AD0E0CC5D6E
:10139000DE4FC881D0E0D0642DCFDF70D06A2ACF75
:1013A000CE01E4E096958795EA95E1F783702C2FBE
:1013B00026952695237040E2249F90011124382B16
:1013C0008C2F8370C1E0D0E002C0CC0FDD1F8A9566
:1013D000E2F7C22BD32BDC680DCFDC2FCC27C16FFB
:1013E000D06A08CFC1E0D0E002C0CC0FDD1F2A9543
:1013F000E2F720E2929FC0011124C82BD92BEBCF3A
:10140000DC2FCC27C46FD06AF5CE8C2F0E946708E2
:10141000C82FD0E0DC2FCC27CC27DF71D062EACEFA
:101420008C2F8F700E94670834E0D695C7953A9547
:10143000E1F7CF709C2FEC01D069DCCEC9E3D0E09E
:10144000D9CEC2EED0E0D6CEC6EED0E0D3CE8091DB
:101450008402882331F01092840210928302109249
:1014600082020895CF93C82F8091380582FD0CC069
:10147000809184028C1741F00E94CF0590938302E3
:1014800080938202C0938402CF91089580959091B9
:101490006C05982390936C05089580959091860330
:1014A000982390938603089590918603892B8093C7
:1014B00086030895109261021092600210925F02FA
:1014C00008958091550490915604892B89F00E94CB
:1014D000CF052091820230918302AC01421B530B55
:1014E00081E020915504309156044217530708F4C7
:1014F00080E08170089580915E02811110925E02F9
:101500000895909118019923D1F09091370597FF94
:1015100016C0E82FE695E695E695EE31E0F4F0E0AA
:10152000EC52FE4F282F277081E090E001C0880F19
:101530002A95EAF780959281892382830895E6EDC2
:10154000F1E09191891303C0DF0111971C9291E0A2
:10155000EC3DF907B1F70895909118019923C1F076
:101560009091370597FF14C0E82FE695E695E6952C
:10157000EE31F8F4F0E0EC52FE4F877021E030E0FD
:1015800001C0220F8A95EAF78281822B8283089517
:10159000A6EDB1E0EFEF90E02D91821751F0EF3F13
:1015A00019F4211101C0E92F9F5F9630A9F7EF3F91
:1015B00009F408950E2E000CFF0BEC52FE4FE6CFFF
:1015C00020915D0290911C02291302C080E00895D1
:1015D00030E0F90153E0EE0FFF1F5A95E1F7E35EAB
:1015E000FD4F5181561306C05081581303C05281DC
:1015F000541304C02F5F3F4F2770E6CF81E008955A
:1016000080915D0290911C02981301C008958F5F34
:101610008770FACF9E3F49F1E82F2AE0929FE00DB4
:1016200011249E2F9770E695E695E69583E0E89F56
:10163000F0011124EB5FFD4F50E040E080E021918C
:1016400030E0092E02C0369527950A94E2F7217002
:101650003327042E01C0220F0A94EAF7822B4F5F32
:101660005F4F4330510559F7089580E008959E3F3C
:1016700069F1E82F2AE0929FE00D11248E2F8770E8
:1016800041E001C0440F8A95EAF7E695E695E695B4
:1016900083E0E89FF0011124EB5FFD4F30E020E094
:1016A00070E05191DF011197CB01022E02C0969597
:1016B00087950A94E2F78170819585278423852791
:1016C0008C932F5F3F4F2330310559F70895929542
:1016D0009F70963091F058F4925F9F70923058F45A
:1016E000803F19F030F4883E30F481E008959A5F2D
:1016F000F4CF843FD1F380E00895883EB0F3813F7A
:10170000D1F7F3CF9C013A9521153F4150F5FC01EB
:10171000EE27F170BC0166277270AC01442754704B
:101720009C012227387094FF0EC080E1EF2B09F452
:1017300080E0672B09F08062452B09F08064232B41
:1017400089F08068089581E0EF2B09F480E0672B31
:1017500009F08260452B09F08460232B19F0886022
:10176000089580E008958093390570933B05609358
:101770003A0580916A058430F9F48093E9008FEF8F
:101780009091E800815095FD06C095ED9A95F1F78E
:1017900000008111F5CF8091E80085FF0DC050E079
:1017A00040E063E070E089E395E00E945904809195
:1017B000E8008E778093E8000895BC0184E00C94E3
:1017C000B30BBC0183E00C94B30BCF93DF93EC011C
:1017D000809118018823B1F18091370587FF32C0CD
:1017E00060E284E08093E9008FEF9091E8008150FF
:1017F00095FD06C095ED9A95F1F700008111F5CFA2
:101800008091E80085FF1BC08091180170E050E0D6
:1018100040E0811104C050E040E068E070E0CE019B
:101820000E9459048091E8008E778093E80080E25E
:10183000FE01AFE3B5E001900D928A95E1F7DF91EB
:10184000CF91089568E081E0CDCF81E08093E00002
:1018500080E28093D8001092C9008FE19EE4019746
:10186000F1F700C0000087E090EBDC0180936D058C
:1018700090936E05A0936F05B093700588E19CE08E
:101880000FB6F894A895809360000FBE9093600007
:10189000FFCF019708F40895EFE9FFE03197F1F7E2
:1018A00000C00000F6CF849A31B33F7E21B320619F
:1018B0004FB7F8948EEE92E0FC015191CF0168E0B1
:1018C00021BB000000C057FF31BB550F000000C016
:1018D00000C000C031BB00C06A9591F7F3E08E31C3
:1018E0009F0751F74FBF8FE594E00197F1F700C0D4
:1018F000000008950F931F93CF93DF9303E514E047
:10190000C7E6D1E0CE010E944135F80181938F01F5
:101910002196CB38F1E0DF07A9F7C9E5D6E0FE0153
:1019200085919491009711F0FC0109952C96F6E0B1
:10193000C93EDF07A1F7DF91CF911F910F91089565
:101940000F931F93CF93DF93843030F5643020F5ED
:101950004A3010F5C42FD0E0CC0FDD1F24E1629F88
:10196000C00DD11D112430E5839FC00DD11D112460
:10197000CE0187960E944135082F10E0102F0027D6
:10198000CE0188960E9441359801282BC901DF912C
:10199000CF911F910F91089590E080E0F8CF462FEE
:1019A0002091840330918503232B91F47E3F39F4F9
:1019B0006E3F71F480918203909183030895843087
:1019C00038F4743028F46A3018F4672F0C94A00CA3
:1019D00090E080E00895CF92DF92FF920F931F93E3
:1019E000CF93DF936C0100916B0580918502082BEA
:1019F000C7E0D0E010E0FC2EC8010C2E02C0959587
:101A000087950A94E2F780FD0CC02197A0F7F12C8E
:101A10008F2DDF91CF911F910F91FF90DF90CF908D
:101A20000895B6018C2F0E94CF0C0E94AA0801973E
:101A300061F3EECFCF93DF93EC010E94EB0CBE017C
:101A40000E94CF0CDF91CF910C94AA08FC018681F3
:101A50009781009721F00E94AA080C94670B80815F
:101A600091810E941A0DF9CF1F93CF93DF9300D07D
:101A700000D00F92CDB7DEB749835A8389819A810E
:101A80006623B9F02223A9F00E94EB0C182F682FCF
:101A900089819A810E94370B69817A81812F0F9009
:101AA0000F900F900F900F90DF91CF911F910C949A
:101AB000CF0C0E940A0B182FEFCFFC01262F868136
:101AC0009781009739F440815181628173818481CB
:101AD0000C94340D089583E290E00E9441358632E3
:101AE00089F484E290E00E944135863E59F485E213
:101AF00090E00E94413591E0833909F090E0892F10
:101B00008170089580E0FCCFCF9384E090E00E9444
:101B10004135C82F82E290E00E944135982F8C2FEA
:101B2000CF910895DB01FC01329625913491421743
:101B3000530758F0FC01349665917491A901CD01C9
:101B40000E94213590E080E008958FEF9FEF089587
:101B50000F931F93CF93DF9303E514E0C7E6D1E023
:101B6000CE010E944135F80161918F01681719F08B
:101B7000CE010E945F352196CB38F1E0DF0781F777
:101B8000DF91CF911F910F910895DA019C012E5F93
:101B90003F4FF90145915491F90125913491A217D4
:101BA000B30758F0FC013496859194910E94213539
:101BB0000E94A80D90E080E008958FEF9FEF0895B8
:101BC000CF93DF93CBE2D2E060E0CE010E945F359D
:101BD0002196C11584E0D807B9F7DF91CF91089518
:101BE0000F931F93CF93DF938901843048F56430BE
:101BF00038F54A3028F521153C4531F42091800311
:101C000030918103232BE1F0C42FD0E0CC0FDD1FF6
:101C100094E1699FC00DD11D112490E5899FC00DED
:101C2000D11D1124612FCE0187960E945F35602F50
:101C3000CE018896DF91CF911F910F910C945F3563
:101C4000DF91CF911F910F910895CF93C82F6FEF20
:101C5000811166E283E290E00E945F356FEFC1116F
:101C600066EE84E290E00E945F356FEFC11163E998
:101C700085E290E0CF910C945F35CF93C92F682F08
:101C800084E090E00E945F356C2F82E290E0CF917B
:101C90000C945F359B01883070F49AE0899FB00105
:101CA000112465577E4F4AE050E0C9010E9431354A
:101CB00090E080E008958FEF9FEF08958F929F92BC
:101CC000AF92BF92CF92DF92EF92FF920F931F934A
:101CD000CF93DF93CDB7DEB72A970FB6F894DEBF68
:101CE0000FBECDBF0CE714E0F12CE12C81E6C82E2D
:101CF0008BE2D82E9BE8A92E9BE2B92E2AEC822EED
:101D00002AE2922EF801D182C082B382A282958209
:101D10008482F58AE48ABE016F5F7F4F8E2D0E9418
:101D20004A0E892B29F489859A85F801938B828B39
:101D3000FFEFEF1AFF0A0A5E1F4F88E0E816F10472
:101D400009F72A960FB6F894DEBF0FBECDBFDF911C
:101D5000CF911F910F91FF90EF90DF90CF90BF90A8
:101D6000AF909F908F900895CF92DF92EF92FF9265
:101D70000F931F93CF93DF93CDB7DEB72A970FB69C
:101D8000F894DEBF0FBECDBFE0E3F3E080E5DF01F6
:101D90001D928A95E9F7EFE0F4E088E3DF011D92F8
:101DA0008A95E9F780E3C82E83E0D82E7F010BEDFA
:101DB00011E0F701D182C0824AE050E0B801CE01C3
:101DC00001960E94313588E0FE013196D6010190DE
:101DD0000D928A95E1F789859A85D70113969C9390
:101DE0008E931297BAE0CB0ED11CE7E0EE0EF11CF9
:101DF000065F1F4F0B32F2E01F07D9F62A960FB687
:101E0000F894DEBF0FBECDBFDF91CF911F910F9130
:101E1000FF90EF90DF90CF90089546E050E06CE1A6
:101E200070E088EE92E00E944F351092E70208952C
:101E3000BF92CF92DF92EF92FF920F931F93CF93B7
:101E4000DF938FB7F894409133055091340560913A
:101E50003505709136058FBF4093AF025093B002A5
:101E60006093B1027093B2028091E802182F137050
:101E700019F0182F1695169590911301913001F1D4
:101E8000992381F0923009F49BC1933009F4A0C1E9
:101E9000DF91CF911F910F91FF90EF90DF90CF9046
:101EA000BF900895109210014093E3025093E40212
:101EB0006093E5027093E60281E080931301E8CF1E
:101EC00090910F01191324C0837020910E0130E00E
:101ED00091E08217130609F490E0892F81708093B6
:101EE00012018091ED0290911101981739F08093C1
:101EF000110140E060E080E00E94B607123009F472
:101F00006BC040F4112379F11130C1F180E0F5C0CC
:101F100081E0E4CFC0911001143009F412C108F43B
:101F20009BC0153099F7CC0FCC0F04E00C0FF02EAE
:101F3000013110F090E1F92ED0E0CF15C0F5FE018F
:101F4000EE0FFF1FEC0FFD1FED54FD4F60817181FF
:101F500082810E94BA07462F282F672FCE010E9448
:101F6000B8072196EACF80911201882309F4C5C0F1
:101F700040E060E080E00E94B607C8CFC091100149
:101F8000CC0FCC0F04E00C0FF02E013110F0E0E18B
:101F9000FE2E6091E9027091EA028091EB020E94AC
:101FA000BA07E62ED72EC82ED0E0CF1528F081E054
:101FB000003108F4A2C0AACFFE01ED54FE4F80818B
:101FC00090911101892331F02C2D4E2D6D2DCE01D4
:101FD0000E94B8072196E9CFC0911001CC0FCC0F19
:101FE00004E00C0FE02E013110F070E1E72ED090EC
:101FF000EA02C090EB022091EC0260E4F62E3F2D45
:10200000329F312D1124F32ED0E0CE1580F6FE0143
:10201000ED54FE4F8081909111018923D9F0FE018A
:10202000EE0FFF1FE559FE4F60A5F69EB00111248B
:1020300055E0759567955A95E1F78091E902680F2B
:102040007D2D8C2D0E94BA07462F282F672FCE0199
:102050000E94B8072196D9CFCC0FCC0FD4E0DC0F6B
:102060000D2FD13108F000E16091E9027091EA0290
:102070003091EB024091E3025091E4022091EC0296
:1020800026952695269590E080E0429F812D529FCF
:10209000800D911D1124982F96FD8095282F2F706B
:1020A00096FD2F5F8695869586958670E82FF0E0E1
:1020B000ED59FE4F8181829F802D212D1124829523
:1020C0008F702295207F822B2081820F97FD819532
:1020D00087FD8195880F282F239F212D1124822F82
:1020E0000E94BA07D62EC72EB82EEC2EF12CE01681
:1020F000B0F081E0D03108F009CF909110019F5FDE
:10210000909310018111C4CE82E0809313018091DD
:1021100012018111BDCE1111BBCE83E0CECEF701ED
:10212000ED54FE4F808190911101892331F02B2DC8
:102130004D2D6C2DC7010E94B8073FEFE31AF30A3B
:10214000D6CFCC0FCC0F04E00C0FF02E013110F0E5
:1021500030E1F32E2091EC022695269531E0230FF5
:1021600008F42FEF4091E3025091E40290E080E008
:10217000429F812D529F800D911D1124E82ED0E0A9
:10218000CF1508F014CFFE01ED54FE4F80819091E1
:102190001101892399F07091EA02FE01EE0FFF1FF1
:1021A000E559FE4F60A56E198091EB020E94BA07B7
:1021B000462F282F672FCE010E94B8072196E0CF27
:1021C00010930F01837080930E010E94530CA5CFD2
:1021D0008091E70281110E940D0F4091E30250911E
:1021E000E4026091E5027091E6022FB7F8948091C5
:1021F000330590913405A0913505B09136052FBF78
:10220000841B950BA60BB70B4097A105B10508F4ED
:102210003FCE109213013CCEE8EEF2E081E18083E4
:102220008091190190911A01A0911B0181839283E1
:10223000A3838FE784838FEF85830C940D0F4F92D8
:102240005F926F927F928F929F92AF92BF92CF9246
:10225000DF92EF92FF920F931F93CF93DF93CDB74F
:10226000DEB728970FB6F894DEBF0FBECDBF8E0144
:102270000F5F1F4F88E0F80111928A95E9F795E505
:10228000E92E91E0F92E680129E5422E21E0522E37
:1022900066246394712C43E6842E41E0942EF7016A
:1022A00081917F018F3F09F445C0F894E82FE295B2
:1022B000EF70F0E021A18F70A30102C0440F551F01
:1022C0008A95E2F7CA01922F982B91A392A180954B
:1022D000892382A3789400C0E9E5F1E021E030E0B1
:1022E000B12CA12C41914F3F09F476C0A42FA295A7
:1022F000AF70B0E090968C9190E04F7002C09595D1
:1023000087954A95E2F780FD67C0C901A82AB92AD6
:10231000220F331F8E169F0629F7F7013197808110
:102320008F3F11F00E94500850EA5A95F1F7F601DC
:10233000B182A082F2E0CF0ED11C4E145F0409F0EE
:10234000AECF48E050E0B80189E892E00E94143531
:10235000FF24F394009709F4F12C892B09F43FC072
:1023600088E0F801A9E8B2E001900D928A95E1F7C2
:1023700081E0809388020E94CF059093870280932A
:10238000860280918602909187020E94C00505977F
:1023900050F18091890290918A029093A8028093D3
:1023A000A70280918B0290918C029093AA02809355
:1023B000A90280918D0290918E029093AC0280933D
:1023C000AB0280918F02909190029093AE02809325
:1023D000AD021092880207C090E080E097CF809114
:1023E00088028111CECF8F2D28960FB6F894DEBFCC
:1023F0000FBECDBFDF91CF911F910F91FF90EF9056
:10240000DF90CF90BF90AF909F908F907F906F9014
:102410005F904F9008958091860390916C05892B71
:102420008093D40180918402882319F1809155040E
:1024300090915604892B29F00E94610A81110E9413
:10244000270A8091D40190918402892B8093D40132
:10245000809118018823D9F18091370587FF37C013
:102460008EE1E6EDF1E090E0815098F591110E9447
:10247000270A40E250E062E672E084ED91E00E94BB
:102480001435892B59F180E2E4EDF1E0A2E6B2E0E7
:1024900001900D928A95E1F7E0912E05F0912F05BC
:1024A0003097E1F080911801882359F08091370529
:1024B00087FF07C08091D4018093D50186E0809387
:1024C000D4010280F381E02D84ED91E0099486E04F
:1024D000C8CF2191222341F29F5FC6CF0895EF928A
:1024E000FF920F931F93CF93DF93EC018A858111A5
:1024F00034C0EB80FC8087E5F81A26E12E9DC001F0
:102500002F9D900D1124DC01A458BB4F1496ED9122
:10251000FC911597309731F054966D917C918E57C0
:102520009B4F099586E18E9D80018F9D100D112492
:1025300004581B4FF80187810E944D0AF8018085DD
:102540000E94460A0E940B12188219861B861E8260
:102550001D8210927B0410927A04DF91CF911F911B
:102560000F91FF90EF900895CF93DF93EC0189894D
:10257000811118C081E0898B8F810E94540A80915B
:102580006C059885892B80936C050E940B12EA815B
:10259000FB81309739F06C897D89CE010696DF91F9
:1025A000CF910994DF91CF91089580911601877F93
:1025B0008093160182E00E94460A8091160184FFF2
:1025C00006C08F7E8093160182E00E94540A80919B
:1025D000160185FF06C08F7D8093160180E20E9460
:1025E000540A0C940B1290E080E00E94F10590E0F8
:1025F00080E00E94DB0510926C050C940B12809316
:102600006B050C94F31280916B05982F96709630A1
:1026100019F488600C94FF12877FFCCF21E030E032
:1026200001C0220F8A95EAF7209580916B058223DD
:102630000C94FF129091610280958923809361022E
:10264000282F277091F4282F082E000C330B921797
:10265000130659F09091380592FD07C08595859530
:1026600085950E940E130C945A0A0895909138058E
:1026700092FB222720F9281769F080FB92F99093AA
:10268000380580913705909138050E943D0E82E013
:102690000C941A13089521E030E001C0220F8A95AE
:1026A000EAF780916B05822B0C94FF12909138050C
:1026B00092FD10C098E0899F90011124622B6093D5
:1026C00061020E944B130E94CF0590936002809399
:1026D0005F0208950C944B13809385020C94F312BF
:1026E0001092860380911801E6EDF1E0882359F0FD
:1026F0008091370587FF07C08EE1DF011D928A9523
:10270000E9F70C94F31286E0F8CF1F93CF93DF9391
:10271000CDB7DEB7AA970FB6F894DEBF0FBECDBF18
:1027200082E695E02091F100DC012D93CD01B5E02A
:102730008A369B07B9F780916305833009F472C02C
:10274000B8F4813009F449C0823009F4B3C08091F3
:10275000E80083FF96C280916205909163059A30EC
:1027600008F08FC2E92FF0E0E356FA4C0C94FE34E7
:102770008A3009F48EC08B3009F471C0893039F782
:1027800080916205813219F7809166059091670505
:10279000009711F00297D9F68091E800877F809327
:1027A000E8008091E80082FF38C09091F3008091AA
:1027B000F200029731F48091F100813011F08630FF
:1027C00021F48091F10080933E058091E8008B77A1
:1027D0008093E8000E94AB04BACF80916205813AF1
:1027E00009F0B5CF8091E800877F8093E800809161
:1027F000660590916705892B61F460E28FE395E0AF
:1028000070E00E945D058091E8008B778093E8007E
:102810009ECF60E090E080E0F3CF80916A05811167
:10282000C0CF95CF80916205813A09F090CF809119
:10283000660590916705892B09F089CF8091E800A2
:10284000877F8093E8008091E80080FFFCCF809133
:1028500018018093F1008091E8008E77B9CF8091C4
:102860006205813209F073CF80916605909167050A
:10287000892B09F06CCF8091E800877F8093E80076
:102880000E94AB0480916405809318010E9470132C
:102890005ECF80916205813209F059CF8091E800C6
:1028A000877F8093E8000E94AB0480916505809348
:1028B0003D054DCF80916205813A09F048CF809166
:1028C000E800877F8093E8008091E80080FFFCCFDC
:1028D00080913D05BECF803899F0823809F0D1C192
:1028E000809166058F70873008F0CBC18093E90036
:1028F0008091EB0085FB882780F91092E90006C0E3
:1029000080915F0590916005911182609091E8003F
:10291000977F9093E8008093F1001092F1008091EE
:10292000E8008E77AAC1882309F498C1823009F0A3
:10293000A8C18091640581119BC1809166058F704B
:102940002FEF280F263008F09CC18093E9002091DA
:10295000EB0020FF8DC1933031F48091EB00806259
:102960008093EB0085C19091EB0090619093EB0018
:1029700021E030E001C0220F8A95EAF72093EA00B7
:102980001092EA008091EB008860EACF811179C152
:10299000109164051F778091E3008078812B8093EC
:1029A000E3008091E800877F8093E8000E94AB04F9
:1029B0008091E80080FFFCCF8091E30080688093E5
:1029C000E30082E0111183E080936A055AC18058C8
:1029D000823008F056C120916405309165052C3D88
:1029E000E3E03E07A1F583E08A838AE289834FB75B
:1029F000F894DE01139620E03EE051E2E32FF0E090
:102A000050935700E49120FF03C0E295EF703F5FC1
:102A1000EF708E2F90E0EA30C0F0C7968D939D93B3
:102A20002F5F243159F74FBF8091E800877F809353
:102A3000E8006AE270E0CE0101960E945D05809197
:102A4000E8008B778093E8001CC1C096E7CF8091A7
:102A5000660590916705432F55274330510509F4CA
:102A60004AC078F54130510509F485C08BE590E006
:102A7000EFEDF6E04230510509F003C12091E80086
:102A8000277F2093E800209168053091690582171F
:102A9000930708F49C0140E02115310509F070C04E
:102AA00041116EC08091E80082FDC9CF80916A0516
:102AB000882329F2853019F28091E80083FFF2CF54
:102AC000BECF4132510509F447C04232510509F0E9
:102AD000D8C08330910508F0D4C0FC01EE0FFF1F71
:102AE000EA53FE4F0190F081E02D8D539E4FDC01A3
:102AF0008C9190E01DC0332721303105E9F021157C
:102B0000310579F022303105F9F02330310509F033
:102B1000B8C0ECE4F7E0E4918E2F90E0ECE4F7E04D
:102B200007C0EAE9F7E0E4918E2F90E0EAE9F7E0E8
:102B3000009709F4A6C0A2CFEAE8F7E0E4918E2F4F
:102B400090E0EAE8F7E0F4CFEAE6F7E0E4918E2FD0
:102B500090E0EAE6F7E0ECCF8330910508F091C011
:102B6000880F991FFC01E453FE4F0190F081E02D86
:102B700089E090E083CF82E190E0EAE3F7E07ECF66
:102B800080916A05882309F45ACF853009F457CF1C
:102B90008091E80083FD53CF8091E80082FD82CFD1
:102BA0008091E80080FF78CF9091F3008091F2004F
:102BB0002115310519F08830910550F041E0089752
:102BC00009F040E08091E8008E778093E80064CFC0
:102BD00044914093F1003196215031090196E8CF9C
:102BE000803809F04EC08091E800877F8093E8002C
:102BF000809161058093F10092CE811142C01091C5
:102C000064051230F0F58091E800877F8093E8003A
:102C1000109361050E94AB04112311F084E005C0FC
:102C20008091E30087FDFACF81E080936A0542E05E
:102C300061EC81E00E94CA0442E261EC84E00E94FF
:102C4000CA0442E261EC82E00E94CA0442E260EC03
:102C500083E00E94CA0480916A0513C080916405D4
:102C6000813079F481E0933009F080E08093600551
:102C70001092E9008091E800877F8093E8000E942D
:102C8000AB048091E80083FF0AC08091E800877F51
:102C90008093E8008091EB0080628093EB00AA961D
:102CA0000FB6F894DEBF0FBECDBFDF91CF911F915D
:102CB0000895E3E5F4E0128E138E8FEA90E091839D
:102CC000808385E0848F28E833E13383228322E305
:102CD00030E0378B268B28EC30E0318F208F158E3B
:102CE0002AE030E0378F268F20E530E031A320A3A3
:102CF00082A30E94A80D0E947013109238051092B2
:102D0000370590E080E00E943D0E0C947A0C7F9293
:102D10008F929F92AF92BF92CF92DF92EF92FF92EB
:102D20000F931F93CF93DF93CDB7DEB764970FB6A2
:102D3000F894DEBF0FBECDBFA0908003B09081039A
:102D400081E090E090938103809380038FEBC82E05
:102D500084E0D82E00E0760110E015C0F401259142
:102D60003491472D612F802F0E94F00D82E0880E54
:102D7000911C7394EAE07E12F1CFF4E1EF0EF11CA6
:102D80001F5F143019F04701712CE8CF0F5F80E509
:102D9000C80ED11C0430F9F60E9459161A82198205
:102DA0001C821B821E821D8218861F8288EC90E086
:102DB0009A8789870BE811E04AE050E0B801CE011C
:102DC00001960E948335065F1F4F0B3DE1E01E0711
:102DD00099F77E01FBE0EF0EF11C8AE0F7011192FA
:102DE0008A95E9F74AE050E0B801C7010E948335AF
:102DF000065F1F4F0B32F2E01F07A1F7B09281036D
:102E0000A092800364960FB6F894DEBF0FBECDBFCC
:102E1000DF91CF911F910F91FF90EF90DF90CF90B6
:102E2000BF90AF909F908F907F90089580E00E9418
:102E3000250E60E086E290E00E945F350E948716D2
:102E40000E94E00D81E00C94250ECF92DF92EF926C
:102E5000FF928FEF9FEF4430510508F46AC0FB01E9
:102E6000C080D180E280F3800E947013809137058A
:102E7000C0FA80F9B701A6017695679557954795F1
:102E800040FB81F9B701A60122E076956795579539
:102E900047952A95D1F740FB82F9B701A60133E0A7
:102EA00076956795579547953A95D1F740FB83F905
:102EB000B701A601E4E07695679557954795EA95A1
:102EC000D1F740FB84F9B701A601F5E07695679547
:102ED00057954795FA95D1F740FB85F9B701A601BB
:102EE000A6E07695679557954795AA95D1F740FB4B
:102EF00086F9B701A601B7E076956795579547958E
:102F0000BA95D1F740FB87F9809337058091380552
:102F1000D0FA80F9D1FACC24C0F8C0FA81F98093B4
:102F2000380580913705909138050E943D0E90E05C
:102F300080E0FF90EF90DF90CF900895882321F0FC
:102F40000E94460A0C940B120895882339F0909140
:102F50006C05982B90936C050C940B1208958823A4
:102F600021F00E944D0A0C940B120895882321F041
:102F70000E94540A0C940B120895882309F44BC044
:102F8000823871F40E94070681FF45C089E30E94E0
:102F9000AC0A0E940B1289E30E94810A0C940B1266
:102FA000833859F40E94070680FF35C083E50E94EC
:102FB000AC0A0E940B1283E5EFCF843859F40E94CB
:102FC000070682FF28C087E40E94AC0A0E940B1209
:102FD00087E4E2CF9CEF980F913AF0F290E2980FDD
:102FE000983050F4877091E001C0990F8A95EAF704
:102FF000892F0E944D0AD2CF9BE5980F933020F481
:1030000090E080E00C94F105885A873120F490E03C
:1030100080E00C94DB050895CF93DF93EC010E94D0
:10302000BD17CE010E94820B9E01205E310928301F
:10303000310510F0CD2B21F4DF91CF910C94AF1717
:10304000DF91CF910C949E17CF93C82F882309F45A
:10305000A2C08238C1F40E94070681FD9CC089E3AA
:103060000E94AC0A0E940B122FEF81EE94E02150D7
:1030700080409040E1F700C0000089E30E94810A8F
:10308000CF910C940B128338A1F40E94070680FDA7
:1030900082C083E50E94AC0A0E940B122FEF81EEE2
:1030A00094E0215080409040E1F700C0000083E5AB
:1030B000E5CF8438A1F40E94070682FD6CC087E446
:1030C0000E94AC0A0E940B122FEF81EE94E0215077
:1030D00080409040E1F700C0000087E4CFCF8CEF44
:1030E0008C0F813A88F580911801882301F1809135
:1030F000370587FF1CC0EC2FE695E695E695F0E0D6
:10310000EC52FE4F828190E04C2F477021E030E07E
:1031100002C0220F331F4A95E2F782239323892BA3
:1031200079F08C2F0E94810A0E940B1209C0E6EDF3
:10313000F1E08191C817A9F321E0EC3DF207C9F74E
:103140008C2F0E94AC0A9CCF80E28C0F883048F410
:10315000C77081E001C0880FCA95EAF70E94540A3F
:103160008FCFEBE5EC0FE33040F4F0E0EC5DFE4F89
:10317000808190E0CF910C94F105C85AC73158F482
:10318000EC2FF0E0EE0FFF1FE95DFE4F8081918193
:10319000CF910C94DB05CF9108951F93CF93DF93CC
:1031A000182FC0917304D0917404893321F0C09119
:1031B0007104D0917204812F0E942418209731F459
:1031C000812FDF91CF911F910C94BD178FE99FE064
:1031D0000197F1F700C000002197F0CF0F931F93E4
:1031E000CF93DF93C42FD22FFC0182818823A1F0DB
:1031F000409379040E94CF059093780480937704DC
:10320000C77081E001C0880FCA95EAF7DF91CF91BE
:103210001F910F910C94B61710917904141339C0B3
:1032200080917704909178040E94C00520916B04EE
:1032300030916C048217930760F5C0E2CD0F1D1723
:10324000B9F080E2810F883040F4177081E001C04E
:10325000880F1A95EAF70E94AF17C83048F481E04A
:103260009D2F977001C0880F9A95EAF70E94B617B4
:10327000802F0E94CD18C83098F4D77081E001C02B
:10328000880FDA95EAF7DF91CF911F910F910C9497
:10329000AF17C77081E001C0880FCA95EAF7F3CF76
:1032A000DF91CF911F910F910895AF92BF92CF926E
:1032B000DF92EF92FF920F931F93CF93DF93EC0176
:1032C0008AE0A82E2881222309F48CC02130C9F578
:1032D00099818A81913021F422960E94CD1805C0EF
:1032E000923029F422960E9424182196EBCF933035
:1032F00021F422960E94BD17F8CF943011F0219648
:10330000F4CF229630E020E0AE014F5F5F4F805354
:10331000990B8A30910550F02150310930F38FE933
:103320009FE00197F1F700C00000F6CFA29EB00128
:10333000A39E700D11249C01260F371F8981EA017D
:10334000E3CFE22FF0E0E555FE4FB490822F869553
:103350008695869590E0FC01E556FE4FE490277037
:10336000F12C022E02C0F594E7940A94E2F731E0C2
:10337000E322FF24FC01E557FE4FC490D12C022E1E
:1033800002C0D594C7940A94E2F731E0C322DD2449
:10339000FC01E558FE4F049110E002C01595079519
:1033A0002A95E2F701701127E114F10419F081EE7A
:1033B0000E942418C114D10419F086EE0E9424182A
:1033C0008B2D0E94CD18CD2819F086EE0E94BD17D6
:1033D000EF2819F081EE0E94BD17012B09F485CF6B
:1033E0008CE27BCFDF91CF911F910F91FF90EF90F7
:1033F000DF90CF90BF90AF900895CF93DF93EC0113
:103400000E94820B9E01205E31092830310510F0A8
:10341000209739F40E94B6178C2FDF91CF910C942E
:1034200024180E94A517F8CF662329F020916C0577
:10343000226020936C059C013056211540E2340730
:1034400020F0305E2115304108F499270C94FD19C5
:10345000DF92EF92FF920F931F93CF93DF937C0144
:103460008B01D42E8091160182FF8CC0C091A903DC
:10347000D091AA03CE15DF0521F0E114F10409F083
:1034800081C0809116018B7F8093160181FD73C0EE
:103490008091A7039091A803A801481B590B81E0D4
:1034A00020911401309115014217530708F480E070
:1034B0008170F82E80911601F0FA81F9809316013F
:1034C000FE0183E0F695E7958A95E1F7EE71FF2717
:1034D000E957FC4F20813181AE014F70552781E0C3
:1034E00090E002C0880F991F4A95E2F7FF2009F487
:1034F00044C0822B932B918380838091860381FF2C
:1035000008C08091160180618093160182E00E94BC
:103510004D0A8091860385FF08C080911601806264
:103520008093160180E20E944D0A6F2DCE010E9409
:10353000141ADD2031F080916E0485FF02C086FFF1
:103540003BC080917104909172040E94490C80915B
:10355000A9039091AA039C013056211540E234073B
:1035600020F0305E2115304108F499270E940C1894
:103570000E94D5121DC081E09BCF8095909582233B
:103580009323B9CFC701992797013056211540E2FF
:10359000340728F0305E2115304108F0C7010E9441
:1035A0000C188091A9039091AA038E159F0501F331
:1035B0001093A8030093A703DF91CF911F910F9160
:1035C000FF90EF90DF90089590E080E00E944935F1
:1035D000893E9E4F11F40C946B0D80E0089569EEC6
:1035E0007EEF90E080E00E947D3560E082E090E038
:1035F0000E945F3560E083E090E00E945F351092AA
:10360000850260E084E090E00E945F3560E082E245
:1036100090E00E945F3560E085E090E00E945F35B9
:1036200060E086E090E00E945F356FEF87E090E019
:103630000E945F3540E050E0BA0188E090E00E94CF
:10364000713560E08DE090E00E945F3540E050E031
:10365000BA0188E190E00E94713560E087E190E076
:103660000E945F3540E050E0BA018CE190E00E949A
:10367000713570E060E080E290E00E947D3540E0CE
:1036800050E0BA0188E190E00E94713580E00E942C
:10369000250E0E94161740E050E0BA018FE090E03E
:1036A0000E94713540E050E0BA0183E190E00C9453
:1036B00071359F92AF92BF92CF92DF92EF92FF92BD
:1036C0000F931F93CF93DF9300D000D0CDB7DEB719
:1036D0007C01DC0113964D915C91149711966C91CD
:1036E00011978C910E9413068111B6C061E0C70149
:1036F0000E945D0D8C01F701828181114CC0D701C0
:1037000012968C91811186C00031BFE51B0709F428
:1037100055C10131EFE51E0709F454C16801E7E521
:10372000DE1A882309F450C1FFEFCF16D10409F047
:1037300008F47CC1D70112968C91882309F4FEC14C
:1037400080910102882309F4E3C18091FF019091E7
:1037500000020E94C0058C32914008F0EFC1C80100
:1037600090568115E0E29E0720F0905E8115904111
:1037700008F411278091FE01853008F0C6C1E82FBA
:10378000F0E0EE0FFF1FEC50FE4F118300838F5FC0
:103790008093FE0151C080910C0190910D01019622
:1037A00009F4ADCFECE7CE2EE4E0DE2EB12CA12C57
:1037B0009924939480910C0190910D018A159B0599
:1037C0000CF49DCFF60186818823E9F081859285EE
:1037D0000817190739F480917A0490917B0408172F
:1037E000190789F0D6011F969C921F971C961C936F
:1037F0000E931B97C6010E94B412C60106960E9442
:103800006F1210926C05BFEFAB1ABB0AE6E1CE0E49
:10381000D11CD0CF980122513F452031310508F00D
:10382000B3C78FEF93E00E9441357EEED72ED00EC6
:103830000BE212E0882361F180916102877061F0F0
:10384000D70112968C91882339F08091380582FD3A
:1038500003C082E00E941A130F900F900F900F90F8
:10386000DF91CF911F910F91FF90EF90DF90CF905C
:10387000BF90AF909F9008950115F4E01F07E1F20B
:10388000C8010E944135811101C0DA940F5F1F4FBA
:10389000D110F2CF19821A821B821C8299249A9429
:1038A00068012FEFC21AD20AC8010E9441358983EC
:1038B0001A82882309F4C0CF813009F073C05801FF
:1038C00032E0A30EB11CC6010E944135C82E8A8386
:1038D000882309F4B1CFC5010E944135D82E8FEF5E
:1038E0008C0D833068F4580143E0A40EB11CDB82D8
:1038F000DD2021F0CE0101960E9455198501D0CF1F
:103900008BEF8C0D833030F5C8010396DB825C01B0
:10391000DD20A1F3580154E0A50EB11C0E944135F1
:103920008C83882359F38B819C818130AFEF9A0778
:1039300010F0982F8827B6E0CB1631F0E7E0CE16CE
:1039400031F00E94512BDACF0E94212BD7CF0E9459
:103950009B2AD4CFF4E0CF12D1CF580124E0A20E9D
:10396000B11CC80103960E944135DD2009F464CFE3
:10397000882309F461CF8150990B989E9001999EFC
:10398000300D11244D2D4150550BCA01820F931F4C
:10399000019708F4B3CFAFE9BFE01197F1F700C08A
:1039A0000000F6CFCE0101960E9455195601A6CF10
:1039B00081E00E944B130E9403133ECF81E00E94DE
:1039C0000E13F9CF82E0FBCF2FEFC216D10411F016
:1039D00008F0B0CE66E273E08C2D0E944A0E892B6F
:1039E00029F586E18C9DF0018D9DF00D1124E458A0
:1039F000FB4F8681813009F062C08091260390914F
:103A00002703892B99F08091280390912903892B12
:103A100069F080912A0390912B0320912C0330911F
:103A20002D03822B932B892B09F453C080910C0119
:103A300090910D018C159D0524F4D0920D01C0923A
:103A40000C01F701828196E19C9D50019D9DB00C77
:103A50001124950124583B4F6901D90150968C934C
:103A60005097928116968C911697992309F43FC02E
:103A70001A961C930E9319978F5F16968C930E943B
:103A8000CF05F60196878587809184028783809190
:103A90006C0590918603892B80870190F081E02D41
:103AA000309741F0D60154966D917C91C5018E57A7
:103AB0009B4F099510937B0400937A043BCE823090
:103AC00009F0B4CF80912A0390912B03892B09F43C
:103AD000ADCF26E12C9DC0012D9D900D1124845861
:103AE0009B4FDC0150961C920E94B4129FCF8823FA
:103AF00009F420CEF9018189882309F41BCEC50180
:103B00008E579B4F0E946F1215CE1092010294CED9
:103B100008322DE5120791F481E0809301020E94A2
:103B2000CF05909300028093FF011092FE01E4EF15
:103B3000F1E08AE0DF011D928A95E9F780916E0439
:103B400080FF35C00E94CF056C01F7018281882378
:103B500009F45AC08091160182FF08C02AE932E0B8
:103B600040E0B60190E080E00E94281A0B31FCE5AD
:103B70001F07E1F10C312CE51207F1F190911601CC
:103B8000892F8E7F90FF81600A313CE51307B9F1E0
:103B9000C8019056811540E2940728F0905E811587
:103BA000904108F03FC01092AA031092A903033F6E
:103BB000FCE51F0709F47FC108F023C1083D3CE57F
:103BC000130709F472C1093D4CE5140709F48BC1D0
:103BD000073D5CE5150709F020C106E221EE41EE44
:103BE00067ED7CE5C7010E94EE1826CE8091160194
:103BF000816080931601CCCF809116018E7F8093D7
:103C000016010E94D512C4CF809116018F7E013E0D
:103C1000110531F0053E1105C1F4809116018F7D2B
:103C2000809316018091160180FFC1CFF701828138
:103C30000832110528F50E31110508F074C0043062
:103C4000110580F58111AFCFB2CFC8019056811513
:103C5000A0E29A0720F0905E8115904118F78091BC
:103C6000160182FFA4CF8091700481FDA0CF2AE9C4
:103C700032E040E0B60190E080E00E94281A97CF41
:103C80000933110558F40D32110518F40B321105E2
:103C9000C9F690916E0492FDD5CF08C00436110587
:103CA000C1F3D0CF90916E0494FDCCCF882309F45A
:103CB000A1C09091860380918402282F292B322F56
:103CC0003D7FB1F11092AA031092A90330916E04C6
:103CD00031FD2EC0F80143E0F695E7954A95E1F7EE
:103CE000EE71FF27E957FC4F98012F70332781E0D1
:103CF00090E002C0880F991F2A95E2F78095909571
:103D000020813181822393239183808360E0C801E5
:103D10000E94141A809184028D7F0E94320A82E0F0
:103D20000E941A1389CD90916E0493FD8BCFBECF64
:103D300038E0F701AAE9B2E001900D923A95E1F777
:103D400010929C0210929E0210929D02A090A903D4
:103D5000B090AA030A151B05B1F530916E0435FF2A
:103D600032C04091160141FB992490F841FF02C0F6
:103D700036FF29C04091A7035091A803B601641BE8
:103D8000750B40916B0450916C0464177507D8F45F
:103D900091FF08C08091160180618093160182E036
:103DA0000E944D0A8091860385FF08C0809116010C
:103DB00080628093160180E20E944D0A692DC50140
:103DC0000E94141A39CD9091160121FB91F990931C
:103DD00016018D7F0E94320A1093AA030093A90353
:103DE000D092A803C092A7038091160184608093AB
:103DF000160195CF970140E0B601C8010E94281A2C
:103E00001BCD053F8CE5180709F461C008F459C0C3
:103E1000063FACE51A0709F460C0F701328133238D
:103E200009F4BFC4109279040330FDE51F0708F0C0
:103E300060C00A3F2CE5120730F4C80182509C454F
:103E4000449708F060C00E94840D909338058093D9
:103E5000370501318CE5180709F446C108F0C3C0E5
:103E60000930ACE51A0709F431C108F08DC00530FE
:103E7000ECE51E0709F41EC108F078C003302CE5FC
:103E8000120709F40DC108F011C180913705816056
:103E900002301C4509F407C180913705909138051F
:103EA0000E943D0E0E947013C7CC07E225EE45EE3E
:103EB00068ED7CE597CE06E221EE40EE63EF7CE50F
:103EC00091CE07E225EE44EE64EF7CE58BCE06E270
:103ED00021EE42EE65EF7CE585CE07E225EE46EE6B
:103EE00066EF7CE57FCE08E221E045EE69ED7CE5FA
:103EF00079CE01364DE5140709F4A5CF053A5DE505
:103F0000150709F4A0CF0631BCE51B0709F097C1DE
:103F100080918603982F9A7A20916D0420FF04C027
:103F2000482F447409F090E021FF04C0482F4171EC
:103F300009F090E022FF04C0482F487809F090E093
:103F400023FF03C0827209F090E0332309F4F6C026
:103F500081E0911101C080E08093020289E2911119
:103F600085E30E94AC0A0E940B1266CC8091370553
:103F7000806207305CE5150709F495C008F4A2C01B
:103F80008091370580648FC0809137058B7F0D301D
:103F90009CE5190709F487C098F4809137058E7F56
:103FA0000B30BCE51B0709F47EC0809137058C609F
:103FB0000C301C4508F477C0809137058D7F73C0A5
:103FC000809137058F7E0F30FCE51F0709F46BC029
:103FD00080913705877F00311C4508F464C08091CB
:103FE00037058F7D60C00D3F3CE5130709F478C0AD
:103FF00050F505315CE5150709F480C098F480910F
:104000003705837F03319CE5190709F44CC008F498
:104010006FC00E94701390913705892F97FB87F925
:10402000805841C00B3FBCE51B0709F447C008F0AE
:1040300053C08091380581600A3F1C4509F02CCFA0
:104040008093380529CF01302DE5120709F462C0AD
:10405000B8F4809138058C7F0F3F4CE5140781F34D
:1040600080913805836001151D4550F38091380516
:10407000982F909591708E7F892B90FB81F9E0CFDE
:1040800001368DE5180709F44BC0053A9DE519077F
:1040900009F44DC002301D4509F0FECE60E03BC082
:1040A00080913705826080933705F6CE8091370581
:1040B0008460F9CF809137058860F5CF809138050D
:1040C0008260BECF809137058061EDCF0E94701372
:1040D000809137058068E7CF809138058E7FB0CF1B
:1040E000809138058D7FACCF809137058F7BDBCFFA
:1040F0000E947013809137058F77D5CF8091370557
:1041000082FB992790F921E0922790FB82F990FB9E
:1041100083F9C9CF61E08EE090E00E945F35BCCEAC
:1041200090913705892F8F7E94FF8061BCCF90914D
:104130003705892F8E7F90FF8160B5CF8091020275
:10414000811104C089E20E94810A0DCF85E3FBCF73
:10415000073C9CE5190709F456C008F44FC0083C19
:10416000BCE51B0709F454C040E457E06DE477E078
:10417000093C1C4509F036C30E94F6065DCB0E3C97
:10418000FCE51F0709F458C060F40C3C3CE513073C
:1041900009F44DC008F446C061E081E00E94880740
:1041A0004BCB063D5CE5150738F4003D1C4508F097
:1041B00043CB61E084E0F2CF0D351D4509F43CCBE3
:1041C00011C38091E80291E089278093E802109260
:1041D00013018091E70281608093E7022DCB41EAD1
:1041E00057E06BEA77E0C8CF4BEA57E061EA77E047
:1041F000C3CF44E757E06EE777E0BECF4EE757E026
:1042000064E777E0B9CF4AE557E067E677E0B4CFF7
:1042100047E657E06AE577E0AFCF4DE457E060E46A
:1042200077E0AACF41E157E06FE177E0A5CF4FE11A
:1042300057E061E177E0A0CF61E083E0AFCF0A35DE
:10424000ADE51A0759F158F40115ECE51E07C9F060
:104250000E3D1C4509F0C6C20E94EF1AEDCA0B358F
:104260002DE51207E9F00C351D4509F0BBC2809120
:10427000380582FB882780F991E089270E94361350
:10428000B1C20E9470134FEF54E38CE04150504094
:104290008040E1F700C000000E94250C81E0EECFD5
:1042A00080E0ECCF828100811181882369F0C80110
:1042B0000E94EB0CD82E682FC8010E94370BB80162
:1042C0008D2D0E94CF0C94C2C8010E940A0BD82EDB
:1042D000F6CF202F2F70B22E802F807F19F0B2944E
:1042E00090EFB922CC20A9F0BB2059F080E2810FD9
:1042F000883010F0111107C08B2D0E94540A0E94C3
:104300000B12812F5AC080916C05B82AB0926C05AF
:10431000F6CF812F0E94BD17BB2009F450C080E268
:10432000810F883010F0111104C08B2D0E944D0AAE
:1043300003C08B2D0E94460A0E940B1240C0302FF2
:104340003F70B32E802F807F803219F0B29480EFBF
:10435000B822112321F1113009F4A4C0CC2009F4B2
:10436000ADC0DD2009F47DC020E0D7014C9111964D
:104370005C91119712966C91129713967C911397FA
:1043800014968C910E94340D8091700481FDB9CFF8
:10439000F701858180FFB5CF8F70858362C08091E2
:1043A000380582FF40C0CC20C1F1BB2029F08B2D05
:1043B0000E94540A0E940B1280E00E942418A92D2A
:1043C000A850BB0B149710F40E940706812F902F62
:1043D0000E94670B8111B9C110920402109203026E
:1043E000AA20B1F08091610280FD12C0D70112961F
:1043F0001C928595859585950E944B13C7010E9457
:10440000591B809161028595859585950E940E13B3
:1044100060E0C7010E945D0D1FCA80E00E94BD17C9
:10442000BB2069F282CFCC2001F1D11004C0809171
:1044300084028B2917C041E0D41206C08091840207
:104440008B290E94320ABBCF80916F04823078F3AF
:10445000D812EDCF0E94270A80915E02B812B09266
:104460005E028B2D0E94B617AACFD11006C00E9403
:10447000270A8B2D0E94AF17A2CF80916F0451E0C5
:10448000D5120BC0823008F49ACF809186038B211D
:1044900009F495CF0E947B0AEACF823040F38D1158
:1044A000E6CF8DCF80917504CC2021F08D1508F4D6
:1044B00086CFD7CFD81608F082CFDBCFDD20C9F268
:1044C0008091730490917404193321F080917104E8
:1044D000909172040E94490C812F0E94BD176FCFEA
:1044E000802F86958695837069F0813009F067CFBB
:1044F000812F902F9370C11002C090E080E00E9445
:10450000DB055DCF812F902F9370C11002C090E02A
:1045100080E00E94F10553CF802F837091F5C11088
:104520004ECF412F429546954770440F440F812F3F
:104530008F70042E01C0880F0A94EAF7212F207192
:1045400014FF07C02FE030E001C0220F4A95EAF7C0
:104550002095302F369536953370323069F050F40F
:1045600040918502313029F0822B84230E946C1304
:1045700026CF842B822BFACF282B8091850282278D
:10458000F5CF8695CC2011F0802F8170882309F417
:1045900016CF412F429546954770440F440F812F07
:1045A0008F70042E01C0880F0A94EAF7212F207122
:1045B00014FF07C02FE030E001C0220F4A95EAF750
:1045C0002095302F369536953370323069F050F49F
:1045D00040916B05313029F0822B84230E94FF1219
:1045E000EECE842B822BFACF282B80916B0582276D
:1045F000F5CFF02FFF70BF2ECC2029F08F2F0E9417
:104600004B13812F2FCF812F0E94AF178B2D0E942C
:104610000E13D5CE123F89F160F4103FB9F0113F6F
:1046200081F0CC2009F48CC0D1106BCE802F8F711B
:1046300028C0133F49F1143FA1F78091380582FF4C
:104640002FC0802F8F71CC2011F31BC08091750477
:10465000CC2079F0D81608F0B2CE202F2F7181E04F
:1046600090E001C0880F2A95EAF790916B058927A1
:10467000B5CF8D1508F4A3CEF0CF802F8F71C11068
:10468000C6CF0E944B139BCE80E0CC2009F4A6CF6E
:1046900081E0902F9F7101C0880F9A95EAF79ECF15
:1046A00080916F048230A0F180915E02CC20F1F005
:1046B0000E944D0A809161028770843041F40E940B
:1046C0005A0A802F8F710E940E13A12C78CE8091F0
:1046D0006F04D816D0F7202F2F71B22E822F0E9490
:1046E0004B1363E08B2D0E945613EFCF0E94540AA8
:1046F00080916F04D81640F00E945A0A0E947B0AEB
:1047000064E0802F8F71EFCF81E00E941A13DDCF1C
:10471000CC2059F0302F3F71B32E832F0E944B13C2
:1047200063E08B2D0E9456134ACE81E00E941A133B
:1047300041E04D1508F043CE82E00E941A133FCEAF
:10474000D110BECE802F8F7162CFCC2019F0D11046
:1047500043CE46CED11040CE20E0F70140815181BA
:104760006281738184810E94340D8091700483FF83
:1047700033CE8091030290910402029709F02CCE6F
:10478000812F0E94CD1828CE0031FFE51F0709F4C4
:104790000FC901312FE5120711F00C948E1B82E036
:1047A00008C906314CE5140709F4B2CB80918603A1
:1047B00082720A3CECE51E0709F42FCD08F0DFCC2D
:1047C000053C2CE5120709F414CD08F0C1CC033CDC
:1047D0004CE5140709F403CD08F006CD023C1C4556
:1047E00009F4EFCCF70186819781009709F45ACD3F
:1047F0000E94AA08182F092FF701C280D580D294F1
:104800003FE0D322809161028770C1F0AC2CCC20B4
:10481000B1F0892F807F803421F080E2810F8830D1
:1048200068F08091380582FD09C082E00E941A1369
:10483000809161028770AA24A3948111A12C902EEB
:1048400092942FE09222FBE0F91508F4B8CDE92DFF
:10485000F0E0E955FA4C0C94FE34CF92DF92EF92DF
:10486000FF920F931F93CF93DF9380911902807F64
:1048700031F480911602C0915D0281110BC0DF916D
:10488000CF911F910F91FF90EF90DF90CF900895FF
:104890002196C77080911C028C1789F3F090140246
:1048A000E0901502C0901702D0901802A6016E2D5C
:1048B0008F2D0E941306D0E08111EACF8E0183E094
:1048C000000F111F8A95E1F7F801E35EFD4F81812A
:1048D0008E11DECF80818F11DBCF82818111D8CF05
:1048E000E380F480EC18FD0860E084E192E00E942F
:1048F0005D0D80916B0490916C04E816F90640F60A
:10490000809119028F70806180931902F801EE5D29
:10491000FD4F80818F708061808384E192E00E94EE
:10492000591BDF91CF911F910F91FF90EF90DF9076
:10493000CF900C94000B3F924F925F926F927F92B8
:104940008F929F92AF92BF92CF92DF92EF92FF929F
:104950000F931F93CF93DF93CDB7DEB765970FB655
:10496000F894DEBF0FBECDBF8C0185E0F801DE01FB
:10497000519601900D928A95E1F7D8014C901196CD
:104980005C9011971296EC9012971396CD90DC9054
:1049900060E084E192E00E945D0D84E1A82E82E057
:1049A000B82E8090170290901802A4016091150211
:1049B000809114020E9413068111CAC1F090160260
:1049C000F601E819F9094F0160E0FF2009F46DC113
:1049D000C5010E945D0D60906B0470906C04309076
:1049E00019028614970408F013C1409117025091E0
:1049F0001802B0901402A0901502832D807F6A2DBA
:104A000009F0ADC08B2D0E941306FE2C81113BC016
:104A1000D80111968C9111978A1135C08C918B1108
:104A200032C020911A0230911B0216968D919C91F2
:104A30002817390741F5E11026C0832D8F7080615A
:104A40008093190284E192E00E94591B809119021F
:104A5000F80185838F2D65960FB6F894DEBF0FBEE3
:104A6000CDBFDF91CF911F910F91FF90EF90DF901D
:104A7000CF90BF90AF909F908F907F906F905F90FE
:104A80004F903F900895F4EF6F16F1E07F0620F409
:104A90008091700480FF21C0A601652D842D0E94A5
:104AA0001306811118C081E08E2580FF16C04E2D9F
:104AB000652D842D0E94E00A882379F084E192E03C
:104AC0000E94591B88E0E4E1F2E0DF011D928A9523
:104AD000E9F7F12CBFCF80E0E8CFA601652D842D4A
:104AE0000E941306811124C081E08E25B82FB17079
:104AF000CB2E80FF2BC04E2D652D842D0E94E00A09
:104B0000D82E811123C0498A5A8A89899A890E949C
:104B10001A0D292F22952F70223060F0243088F44E
:104B20009F7061F0F8019581907F41F4FD2C92CF48
:104B300080E0DCCF9F7011F08823C1F3805E883065
:104B4000A8F3C8010E94591BDC2CF0CFEE2009F419
:104B500081CF80911902816080931902BACF8B2D89
:104B60000E941306811124C0D80111968C911197CF
:104B70008A111EC08C918B111BC020911A0230919A
:104B80001B0216968D919C9117972817390781F46F
:104B9000E1100EC015963C92C8010E94591B88E096
:104BA000F801A4E1B2E001900D928A95E1F752CFAD
:104BB000C8010E94260D882339F1EE2029F1809149
:104BC00019028032A0F020911402309115023A8728
:104BD00029871B86DD86CC868E8780911A0290916C
:104BE0001B02988B8F87CE0109960E94591B88E083
:104BF000F801A4E1B2E001900D928A95E1F70E94DC
:104C00002D24FF24F39426CFC8010E94591BF9CF0D
:104C1000832D807F09F452CF90901402809015026A
:104C20004091170250911802682D892D0E94130699
:104C300081111CC0F8018181881118C080818911FF
:104C400015C020911A0230911B0286819781281786
:104C5000390761F4E1100AC03582C8010E94591B6E
:104C600088E0D5011D928A95E9F7F4CEC8010E942B
:104C7000260D882349F2EE2039F280911902803204
:104C800008F4B5CF20911402309115023A8329839C
:104C90001B82DD82CC828E8380911A0290911B024E
:104CA00098878F83CE010196A0CF84E192E00E9485
:104CB0005D0D80916B0490916C048816990680F6C6
:104CC000FE2CEE2009F4A0CFE0901402D090150243
:104CD00040911702509118026D2D8E2D0E941306DF
:104CE000811128C0F80181818D1124C080818E112D
:104CF00021C020911A0230911B02868197812817CA
:104D00003907C1F48091700482FD49CF9091190256
:104D100090FD45CF907F09F442CF809119028583A1
:104D2000903F09F439CF982F907F905F8F70892B37
:104D3000858332CFC8010E94260D811158CF809102
:104D40001902816080931902C8010E94591B82CE0A
:104D5000EE2009F459CFC8010E94260DF82E8823B1
:104D600009F452CF88E0F801A4E1B2E001900D927D
:104D70008A95E1F780911402909115020E941A0D14
:104D80000E942D2467CECF93DF93CDB7DEB7609717
:104D90000FB6F894DEBF0FBECDBF29873A874B8789
:104DA0005C876D877E878F87988BCE0109960E94DE
:104DB0009B2481112FC088E0FE013996DE011196F7
:104DC00001900D928A95E1F74C855D856A8589850C
:104DD0000E94130681111EC0A0911C02B0E0CD01FB
:104DE00001968770992720915D022817190609F10D
:104DF00093E0AA0FBB1F9A95E1F7A35EBD4F98E021
:104E0000FE01319601900D929A95E1F780931C0274
:104E10000E94000B80915D0290911C02891317C0C3
:104E200060960FB6F894DEBF0FBECDBFDF91CF9175
:104E300008950E94701310921C0210925D0288E087
:104E4000E4E1F2E0DF011D928A95E9F7E3CFB8E0F3
:104E50008B9FC0011124835E9D4F0E949B24882359
:104E6000F9F280915D0290E0019687709927809316
:104E70005D02D0CFEF92FF920F931F93CF93DF93FA
:104E80008091AE03882361F0C091AD038CE0F82ED1
:104E90008091AE03C81758F01092AE031092AD0384
:104EA000DF91CF911F910F91FF90EF900895EE2425
:104EB000E394EC0EE092AD030C2F10E0CF9DE001E7
:104EC0001124C155DC4F4B815C81698188810E942E
:104ED000130681111DC08E819F81892B21F4888545
:104EE0009985019651F4288139814A815B816C81D1
:104EF0007D818E819F810E94C326F09EF001F19EEC
:104F0000F00D1124E155FC4F1482138210926C05B0
:104F1000CE2DBECF10925204109251041092170160
:104F20008091500480934F040E944C060C943A27C1
:104F30003F924F925F926F927F928F929F92AF9229
:104F4000BF92CF92DF92EF92FF920F931F93CF9376
:104F5000DF93C0914F0497E0892E01E010E02CE030
:104F6000322E3EEF932E44244394809150048C13B0
:104F700015C00E943A27DF91CF911F910F91FF90AA
:104F8000EF90DF90CF90BF90AF909F908F907F90E9
:104F90006F905F904F903F900C944C06D0E0FE01D4
:104FA000EE0FFF1FE95BFB4F80819181889ED0014E
:104FB000899EB00D1124A15FBB4F14962C911497BC
:104FC000211157C05090AE03EFEAF3E030E020E04B
:104FD000712C5D01251508F04AC0E284F384D501E7
:104FE000CD90DC906FEF7FEF612C462D50E0DA0121
:104FF000AA0FBB1FAC0DBD1D0D90BC91A02D10972D
:1050000031F0EA16FB0609F4BA016394EECF6F3F64
:105010007607A1F1D80102C0AA0FBB1F6A95E2F77B
:105020007A2AB80102C0660F771F6A94E2F7AB01D3
:105030004150510974161506F9F4329EF001339E61
:10504000F00D1124E155FC4F889ED001899EB00DD2
:105050001124A15FBB4F12962D913C91139737837A
:105060002683908291829187808715964C920E9428
:105070001E062196C37079CF148213822F5F3F4F93
:105080003C96A8CF2F923F924F925F926F927F9261
:105090008F929F92AF92BF92CF92DF92EF92FF9248
:1050A0000F931F93CF93DF93CDB7DEB769970FB6FA
:1050B000F894DEBF0FBECDBF942F498B252F5A8B9E
:1050C0006B8B7C8B8D8B4C895D89622F892F0E9425
:1050D0001306811109C08091030290910402019688
:1050E00090930402809303028B89811110926C05C6
:1050F0001D861E861F86188A85E0FE017196DE01D8
:10510000199601900D928A95E1F78091380582FDFC
:105110001EC08091550490915604892BC1F00E94C5
:10512000CF0520915F0230916002821B930B20918A
:105130005504309156048217930720F08091610244
:1051400082FFF5C10E94610A81110E94270A4C85E5
:105150005D856A8589850E941306811111C061E011
:10516000CE0109960E945D0D6C018B8527EFC2165A
:105170002CE5D20681F4882321F181E08093170188
:1051800029853A854B855C856D857E858F859889D7
:105190000E94C326C5C038EFC3163CE5D30629F4E8
:1051A000882379F00E948A27EBCF49EFC4164CE59B
:1051B000D40639F4882329F0809117018111F2CFA8
:1051C000DCCF0FE014E0512CB12CA12C222423942D
:1051D000312C2EEF422EF8014081518188248A948F
:1051E000982C20E0822F90E0FC01EE0FFF1FE40FCF
:1051F000F51F608171816115710531F0C616D70602
:1052000009F44C012F5FEECFF12CFFEF8F169F06B4
:1052100009F448C0F8014481F09017018F2D411125
:1052200080E0F82FF170FF2EF801E58086819B85E4
:10523000992309F40CC1FF2009F409C160906904A5
:1052400070906A04E11012C0A10101C0440F8A9459
:10525000EAF7842B86838091AB039091AC0386158B
:10526000970520F47092AC036092AB03C10102C0B9
:10527000880F991F2A95E2F70197F80126812817D0
:10528000190681F48091510490915204009709F419
:1052900060C00E94C0056816790608F05AC021E077
:1052A000F80124835F28FFEFAF1ABF0A095F1F4F81
:1052B00028E0A216B10409F08ECF8B85882309F46B
:1052C00021C1552009F41EC10E94CF0590935204BC
:1052D000809351048091AE03883010F591E0980FCF
:1052E0009093AE0398E0FE013996DE01119601908D
:1052F0000D929A95E1F73CE0839FC00111248155FE
:105300009C4F28E0FE013196DC0101900D922A9518
:10531000E1F72FEF3FEFFC0131872087D386C2866C
:1053200069960FB6F894DEBF0FBECDBFDF91CF9167
:105330001F910F91FF90EF90DF90CF90BF90AF90B3
:105340009F908F907F906F905F904F903F902F90A5
:10535000089580914F0450915004982FF0E0E0E0C0
:10536000851314C090934F04E017F10709F49ACF06
:1053700090E0FC01EE0FFF1FE95BFB4FB182A082C2
:10538000019683709927809350048CCF682E712CDE
:10539000F301EE0FFF1FE95BFB4F2081318147E0F6
:1053A000429FD001439FB00D1124A15FBB4F6D916F
:1053B0007C911197798F688F40E020E030E0E32FF7
:1053C000F0E0EE0FFF1F688D798DE60FF71F8080EC
:1053D000918081149104E1F0F8010190F081E02DB9
:1053E000FF8BEE8B20E005C08616970609F44F2D43
:1053F0002F5FE22FF0E0EE0FFF1F6E897F89E60F2F
:10540000F71F608171816115710571F73F5FD7CF1B
:105410004423D1F0F801231708F0FD0121E0248393
:105420000E171F0721F490934F04F42E3BCF9813CF
:1054300005C0AE17BF0711F49F5F937093012F5FF4
:105440003F4F822F83708CCFF0E0E0E0F7CF90E009
:10545000E1101FC0B10102C0660F771F2A95E2F765
:105460009B01215031098217930731F4442309F439
:1054700047C0C5010E941E06C10101C0880F8A9461
:10548000EAF7982F9095F801868189238683FE2C70
:1054900009CF9C01082C02C0359527950A94E2F7A4
:1054A000A90141705527BC016150710986239723DA
:1054B000892B11F5452B01F1F80182819381892B0C
:1054C000C1F01B821C821D821E8249824A820E9478
:1054D000CF058160582F9D838C83F8018281938151
:1054E0008F83988729813A814B816D817E810E94CB
:1054F000C326F8011582C0CFF22FF170EF2EBCCF7A
:10550000EF2CBACF90914F0480915004981731F04E
:105510000E949827552009F433CE02CF0E943A27E3
:1055200010925204109251040E944C06F3CF82E074
:105530000E941A1307CECF93DF9300D000D00F92B2
:10554000CDB7DEB79093830380938203811520E269
:10555000920748F40F900F900F900F900F90DF91EB
:10556000CF910C940C188EEF89838A831B820E9442
:10557000CF058160782F9D838C8349815A816B810F
:105580008D810F900F900F900F900F90DF91CF9122
:105590000C9442280F931F93CF93DF938C01EB0160
:1055A00066E273E08C2F0E944A0E892BA1F4809151
:1055B0007104909172040E94490CDD27C25EDC4F99
:1055C0008881F80110821882833009F148F4813013
:1055D00059F0823081F0DF91CF911F910F910895A2
:1055E0008430D1F08530B9F780912603909127035C
:1055F000009789F306C080912803909129030097B2
:1056000099F3DF91CF911F910F910C949B2A809178
:105610002A0390912B03F3CF80912C0390912D03BB
:10562000009779F720912603309127038091280372
:105630009091290321153105D9F2009711F7C9017D
:10564000E0CFCF93DF9300D000D00F92CDB7DEB77D
:105650009093830380938203811520E2920748F49C
:105660000F900F900F900F900F90DF91CF910C94AF
:10567000FD198EEF89838A8381E08B830E94CF0599
:105680008160782F9D838C8349815A816B818D81C4
:105690000F900F900F900F900F90DF91CF910C947F
:1056A0004228CF93DF93EC010E94212B809171045B
:1056B000909172040E94490CCE01DF91CF910C941D
:1056C0009B2A0F931F93CF93DF938C01862F66E263
:1056D00073E00E944A0E892BC9F4C0912603D09131
:1056E0002703209799F0F8018081833069F4CE0177
:1056F0000E94512BCE010E94512BCE01DF91CF9100
:105700001F910F910C94512B8430B8F7DF91CF91FA
:105710001F910F9108950F931F93CF93DF938C01E7
:10572000EB0166E273E08C2F0E944A0E892B09F090
:1057300064C0FE01FF27D8018C91E25EFC4F8130EE
:10574000D9F419969C911997992311F080830CC074
:105750001A969C919923D1F382E08083809128034B
:10576000909129030097D9F4809126039091270303
:10577000009709F442C013C08230E9F519968C9164
:10578000199781112DC01A968C9181110EC083E05A
:10579000808380912A0390912B03009719F1DF9168
:1057A000CF911F910F910C94212B84E080838091E5
:1057B0002C0390912D03009791F7809126039091EF
:1057C00027030097F9F00E94512B809128039091B4
:1057D0002903009721F78091260390912703DFCFBB
:1057E00085E080838091260390912703009729F01C
:1057F0000E94512BF0CF86E08083DF91CF911F91E3
:105800000F9108958091280390912903B1CF1F92A1
:105810000F920FB60F9211242F933F934F935F93E4
:105820006F937F938F939F93AF93BF93CF93DF93A8
:10583000EF93FF93D091E900DF708091EC00C82FC7
:10584000C17080FDC0E81092E9008091F000877F70
:105850008093F00078940E9485131092E900809163
:10586000F00088608093F000CD2BCF70C093E900EA
:10587000FF91EF91DF91CF91BF91AF919F918F9168
:105880007F916F915F914F913F912F910F900FBE3C
:105890000F901F9018951F920F920FB60F92112420
:1058A0002F933F934F935F936F937F938F939F9328
:1058B000AF93BF93EF93FF938091E10082FF09C004
:1058C0008091E20082FF05C08091E1008B7F809390
:1058D000E1008091DA0080FF24C08091D80080FF31
:1058E00020C08091DA008E7F8093DA008091D90009
:1058F00080FF9DC080E189BD82E189BD09B400FEC1
:10590000FDCF81E080936A0580913C05811109C03B
:105910000E9409040E94FC048091E200846080934C
:10592000E2008091E10080FF17C08091E20080FFDB
:1059300013C08091E2008E7F8093E2008091E200AC
:1059400080618093E2008091D80080628093D800CB
:1059500019BC85E080936A058091E10084FF2BC02B
:105960008091E20084FF27C080E189BD82E189BD8A
:1059700089B5982F917080FFFBCF8091D8008F7DE3
:105980008093D8008091E1008F7E8093E100809128
:10599000E2008F7E8093E2008091E200816080933C
:1059A000E20080916105882309F447C084E0809378
:1059B0006A0580916A058091E10083FF27C080918C
:1059C000E20083FF23C08091E100877F8093E100A4
:1059D00082E080936A05109261058091E1008E7FDC
:1059E0008093E1008091E2008E7F8093E2008091BD
:1059F000E20080618093E20042E060E080E00E948B
:105A0000CA048091F00088608093F000FF91EF91CC
:105A1000BF91AF919F918F917F916F915F914F91C6
:105A20003F912F910F900FBE0F901F90189519BCAA
:105A300010926A0510923C0574CF8091E30087FDB7
:105A400093E090936A05B5CF78941F921FB61F928A
:105A500011248F939F93AF93BF93809133059091BF
:105A60003405A0913505B09136050196A11DB11DF3
:105A70008093330590933405A0933505B093360594
:105A8000BF91AF919F918F911F901FBE1F9018954E
:105A90001F921FB61F9211248F939F93AF93BF93B2
:105AA00080913205811113C08091330590913405A6
:105AB000A0913505B09136054196A11DB11D809389
:105AC000330590933405A0933505B0933605BF9107
:105AD000AF919F918F911F901FBE1F901895CDB7CA
