:100000000C94A1030C94D9030C94D9030C94D90338
:100010000C94D9030C94D9030C94D9030C94D903F0
:100020000C94D9030C94D9030C942C2A0C94E82931
:100030000C94292B0C94D9030C94D9030C94D90358
:100040000C94D9030C94D9030C94D9030C94D903C0
:100050000C94D9030C94052B0C94D9030C94D9035C
:100060000C94D9030C94D9030C94D9030C94D903A0
:100070000C94D9030C94D9030C94D9030C94D90390
:100080000C94D9030C94D9030C94D9030C94D90380
:100090000C94D9030C94D9030C94D9030C94D90370
:1000A0000C94D9030C94D9030C94D90305010902CB
:1000B000A10185020901A100050919012905150001
:1000C00025019505750181029501750381010501E1
:1000D000093009311581257F950275088106093897
:1000E0001581257F950175088106050C0A380215D2
:1000F00081257F950175088106C0C005010980A191
:1001000001850319012AB700150126B7009501756D
:10011000108100C0050C0901A101850419012AA064
:1001200002150126A002950175108100C005010984
:1001300006A1018506050719E029E71500250195A7
:1001400008750181020507190029EF1500250195A1
:10015000F0750181020508190129059505750191C0
:1001600002950175039101C00660FF0961A10109B3
:1001700062150026FF0095207508810209631500AD
:1001800026FF00952075089102C005010906A1010E
:10019000050719E029E71500250195087501810279
:1001A0009501750881010507190029FF150026FF33
:1001B0000095067508810005081901290595057542
:1001C000019102950175039101C00000000000003B
:1001D000000000000000000000000000000000001F
:1001E00000000000000000000000000000007E0F82
:1001F00000D4FFFFFFC700000078000000000000EF
:1002000000002A2B28000000000000000000000071
:10021000000000000029000000002C1E34202122D4
:1002200024342627252E362D3738271E1F2021223D
:10023000232425263333362E37381F0405060708B6
:10024000090A0B0C0D0E0F101112131415161718A6
:10025000191A1B1C1D2F3130232D350405060708E4
:10026000090A0B0C0D0E0F10111213141516171886
:10027000191A1B1C1D2F3130354CFD377A585A0086
:100280000004E6D6B4460200210116000000742FD7
:10029000E5A3E002DE01395D003D8889C65436C31E
:1002A000174FE4EE6FC164D1CF85F094A114AFACC9
:1002B000811AC17B5947E932688C3F3808C0A77D55
:1002C000ADC868781F7762D4AEFB2504611B438AF2
:1002D0000ABABD3945337BE6423E37BEBF19D2EA82
:1002E000D557A098A8A22237497AB44EBE3A73795E
:1002F0005E663B2035A9F12680805A9EEE2322833C
:10030000FDA90D5DA741645BEC21DDE0565EC4BC38
:100310000E7446A08F90FDACD703970E07E63429E4
:100320005AEA44FF7D192CBF98D937D9DE5F3AB31A
:100330008A29CF6481C3F910A3B9FF4AEF852C8EB7
:10034000541DF856EF45CE3F2E539DBF2641D3A9ED
:100350003EB13F16B777B43339700278530369FF63
:10036000DD47E9D7C6C358007D9BA6516E6F9E61DD
:1003700045008C3FCA331572C50B661CFD0932C09F
:10038000DA6F19CD2EFC4F6F6663E14DBEE59E7CA2
:100390007A177A8518E3C2B92D591CEEE822FF932B
:1003A000AB5FBEB22C4AAE85BD3915FE63B13714C2
:1003B000AEF69E06E918A8716577766993C6B89976
:1003C0002E4BDED02443F4D53A914933118DD3DD41
:1003D000E90000000000B838006653E40A7F00011D
:1003E000D502DF05000005619A83B1C467FB0200F6
:1003F00000000004595A14001A00080015001700E4
:100400001C0018000C001200130004001600070066
:1004100009000A000B000D000E000F003400000060
:100420001D001B0006001900050011001000360019
:10043000370000000000E00000002C0000002A004F
:100440000000E600000001000100010001000100C1
:100450000100010001000100010001000100010094
:100460000100010001000100010001000100000085
:100470000100010001000100010001000100010074
:100480000100000000000100000001000000010068
:100490000000010000000100010001000100010056
:1004A0000100010001000100010001000100010044
:1004B0000100010001000100010001000100000035
:1004C0000100010001000100010001000100010024
:1004D0000100000000000100000001000000010018
:1004E0000000010000000100010001000100010006
:1004F00001000100010001000100010001000100F4
:1005000001000100010001000100010001000000E4
:1005100001000100010001000100010001000100D3
:1005200001000000000001000000010000000100C7
:1005300000000100000001000100010001000100B5
:1005400001000100010001000100010001000100A3
:100550000100010001000100010001000100000094
:100560000100010001000100010001000100010083
:100570000100000000000100000001000000010077
:1005800000000100000001000100AB03DF0D120EAE
:10059000000002000200A703DF0D120E000003009E
:1005A0000100AC03DF0D120E0000040002009103F5
:1005B000DF0D120ED60605000100AD03DF0D120E91
:1005C0000000060002009303DF0D120E000007007A
:1005D0000200A903DF0D120E000008000100AE03A7
:1005E000DF0D120E0000090002009503DF0D120E50
:1005F000B1060A0002009703DF0D120EB1060B00D0
:1006000002009903DF0D120EB1060C0002009B03DD
:10061000DF0D120EB1060D0002009D03DF0D120E5C
:10062000B1060E0002009F03DF0D120EB1060F008F
:100630000200A103DF0D120EB10610000200A30399
:10064000DF0D120EB10611000200A503DF0D120E20
:10065000B10612000200AF03DF0D120E00001300FE
:100660000200B103DF0D120E000014000100B303FD
:10067000DF0D120E00001500000000002E06891587
:10068000000009025B00030100A0FA090400000158
:100690000301010009211101000122400007058129
:1006A00003080001090401000203000000092111F0
:1006B0000100012222000705820320000107050333
:1006C00003200001090402000103000000092111B8
:1006D00001000122BC000705840320000112010073
:1006E00002000000084F532B610200010203011CAD
:1006F000037600690061006C003A00660036003441
:10070000006300320062003300630000001E0361DA
:10071000006C007000680061006C0070006800618F
:10072000005F0070006C007500730000000E034F46
:10073000005400540049004D004F0000000403091C
:10074000040011241FBECFEFDAE0DEBFCDBF04B638
:1007500003FE18C08091AB049091AC04A091AD044D
:10076000B091AE048730904BA740B04B59F4109233
:10077000AB041092AC041092AD041092AE04E0E011
:10078000F8E3099511E0A0E0B1E0E6ECF6E602C07E
:1007900005900D92A237B107D9F724E0A2E7B1E0A6
:1007A00001C01D92AB3AB207E1F70E94502B0C94A6
:1007B0003D330C940000E8EDF0E080818E7F808373
:1007C0001092E2001092DA001092E100A0EEB0E088
:1007D0008C9181608C9380818F77808319BCA7ED89
:1007E000B0E08C918E7F8C9380818F7E808310927D
:1007F0007A0408952091E4003091E50095E6A9017E
:100800002091EC00822F817020FF06C08091E800CB
:1008100080FF06C080E008952091E80022FD1AC004
:100820008091A804882389F0853089F08091EB00BD
:1008300085FD0FC02091E4003091E5004217530779
:10084000F9F29150E1F684E0089582E0089583E0A2
:10085000089581E00895EF92FF920F931F93CF9335
:100860007C018B010E94FA03C82F811117C080916F
:10087000E80085FD0BC08091E8008E778093E8004A
:100880000E94FA03882399F3C82F08C0F7018191C9
:100890007F018093F1000150110949F78C2FCF910E
:1008A0001F910F91FF90EF900895CF93FC018091DD
:1008B000A804843001F5C091E900CF702091EC00CC
:1008C000922F917020FD90E8C92B82E08093E9007F
:1008D0008091E80080FF0CC050E040E060E270E0F2
:1008E000CF010E942B048091E8008E778093E8006E
:1008F000CF70C093E900CF9108958091A00487FF45
:1009000013C08091E80082FF06C08091E8008B77D9
:100910008093E80004C08091A8048111F2CF08956B
:100920008091A8048823D9F38091E80080FFF8CF54
:100930008091E8008E77ECCF982F9093E900242FD8
:10094000762F50E0891731F07091EC002091ED0086
:100950005091F00021FD07C09F5F973071F78093A1
:10096000E90081E008953091EB003E7F3093EB0089
:100970003091ED003D7F3093ED003091EB00316020
:100980003093EB007093EC002093ED005093F00057
:100990002091EE0027FDE0CF80E00895CF92DF9216
:1009A000EF92FF920F931F93CF93DF93C8EDD0E0A8
:1009B00088818F7E8883E7EDF0E08081816080838D
:1009C00084E082BF81E080937A0488818E7F88836F
:1009D00002EE10E0F80110821092DA0081EEC82ECB
:1009E000D12CF601108288818F7788838881806876
:1009F000888388818F7D888319BC1092A804109207
:100A00009F0410929E0410929D0490EEE92EF12C0A
:100A1000F70180818B7F808388818160888342E0B9
:100A200060E080E00E949C04F60180818E7F8083DC
:100A3000F801808181608083808188608083F701F4
:100A400080818E7F8083888180618883DF91CF91D0
:100A50001F910F91FF90EF90DF90CF900895FC01D0
:100A60008091A6049091A70486179707A0F06115BE
:100A7000710529F49091E8009E779093E80090E04A
:100A80006115710551F4911108C08091E80082FF51
:100A900034C080E00895BC01F2CF8091A80488237F
:100AA000C1F18530C1F18091E80083FD30C08091B3
:100AB000E80082FDEACF8091E80080FFE1CF8091DD
:100AC000F3002091F200382F6115710519F02830DC
:100AD000310558F091E02830310509F090E020917F
:100AE000E8002E772093E800CBCF81918093F1002E
:100AF000615071092F5F3F4FE7CF8091A804882391
:100B000041F0853041F08091E80083FFBECF81E065
:100B1000089582E0089583E00895089580917C040B
:100B200008959C014FB7F8948091710490917204DC
:100B3000A0917304B09174044FBF821B930B08956E
:100B40002FB7F8948091710490917204A09173046E
:100B5000B09174042FBF089520916E0430916F04FA
:100B60002817390771F090936F0480936E04E09119
:100B70006C04F0916D04309721F00084F185E02D34
:100B80000994089520916A0430916B04281739075D
:100B900071F090936B0480936A04E0916C04F0917F
:100BA0006D04309721F00680F781E02D09940895B7
:100BB000E0916C04F0916D04309721F00190F08188
:100BC000E02D099480E00895452B39F0682381E0F9
:100BD0006F3F09F080E08170089581E0FCCFDC0177
:100BE00060918D0380918E03962F891301C0089523
:100BF000292F30E0F901EE0FFF1FEB57FC4F40812A
:100C000051814A175B07A1F487E08A9FA0018B9F5F
:100C1000500D1124435B5C4F81E0FA0184839613ED
:100C2000E6CF2F5F3F4F2370332720938D03089526
:100C30002F5F3F4F922F9370D8CF1092EA021092FD
:100C4000E902EDE4F3E08581811102C0148216828D
:100C5000379683E0E538F807B1F70895AF92BF9271
:100C6000CF92DF92EF92FF920F931F93CF93DF9378
:100C70008FEF9FEF4430510508F468C04091750430
:100C800041FB882780F990E0880F991F42FB0027DD
:100C900000F910E0000F111F000F111F802B912B86
:100CA00040FBCC24C0F8D12C8C299D2943FB222762
:100CB00020F9C22FE0E0DE2F53E0CC0FDD1F5A9564
:100CC000E1F78C2B9D2B44FBAA27A0F9B0E0E4E0D0
:100CD000AA0FBB1FEA95E1F78A2B9B2B45FBEE275A
:100CE000E0F9F0E0A5E0EE0FFF1FAA95E1F78E2BEB
:100CF0009F2B46FB222720F930E0B6E0220F331F5E
:100D0000BA95E1F7822B932B47FB222720F930E09D
:100D10003695322F222737952795822B932B2091BA
:100D20007604322F3170F32EF92A26952170B22ED7
:100D3000BB0CA82EBF28C501BB0CAA0BBB0BFB012B
:100D400080839183A283B38390E080E0DF91CF9191
:100D50001F910F91FF90EF90DF90CF90BF90AF90D9
:100D60000895E1E9F3E0848195812AE030E0B9015A
:100D70000E948832609315018681809314018285D8
:100D80008093130184858093120186859785B9012C
:100D90000E948832609311018089809310018289BA
:100DA00080930F01848980930E01089580919103AF
:100DB00090919203909317018093160108958115E5
:100DC0002CE5920741F42091BE023091BF02232B03
:100DD00011F490E080E008950E94A0059C0190919C
:100DE000580280915902982B21F03093550220939C
:100DF000540290915A0280915B02982B21F030931B
:100E0000530220935202E0916C04F0916D043097EC
:100E100049F082E0809356020480F581E02D86E55A
:100E200092E00994089590915802803F59F480917E
:100E3000590287FF0DC01092590291110BC01092F8
:100E4000500208C0813F81F48091590218169CF32A
:100E5000992381F080915A0290915B02892B09F0CD
:100E600064C010924F020895823F49F497FFF0CF7B
:100E700010925802809159028111ECCFE0CF833F4C
:100E800019F41916ACF3E4CF20915A02893F29F4E2
:100E90001216F4F610925A02DBCF8A3F19F427FF9C
:100EA000D7CFF8CF20915B028B3F29F427FFD0CF1B
:100EB00010925B02CDCF8C3F19F41216CCF3C8CF41
:100EC000843F31F4809157028E7F80935702C0CFC8
:100ED000853F21F4809157028D7FF7CF863F21F423
:100EE000809157028B7FF1CF873F21F48091570289
:100EF000877FEBCF883F21F4809157028F7EE5CF2B
:100F00008D3F31F4809151028E7F80935102A0CFAA
:100F10008E3F21F4809151028D7FF7CF8F3F09F0F2
:100F200097CF809151028B7FF0CF0895809151022D
:100F300080FF0CC060910F0170E075956795759505
:100F400067956115710549F1862F089581FF06C0E7
:100F500060910F0170E075956795F3CF60910F0177
:100F600082FD0BC090914F029923A1F060910E0178
:100F700080910F01961738F0682F70E06038710586
:100F800000F38FE70895899FC001112470E00E944B
:100F90009C32F4CF61E070E0D7CF81E0089580917A
:100FA00051026091990370919A0380FF16C02091BD
:100FB0001301269FC001279F900D1124BC01769537
:100FC0006795769567956038710508F043C061159F
:100FD000710509F441C0862F089581FF0BC020914F
:100FE0001301269FC001279F900D1124BC01769507
:100FF0006795E9CF82FF09C0809113019B01829F11
:10100000B001839F700D1124DECF20915002222366
:10101000D1F29091120180911301482F50E02917CD
:1010200048F0CB01849FB001859F700D949F700D97
:101030001124C9CF289F90011124269FA001279F2A
:10104000500D369F500D1124692F70E0CA010E9487
:101050008832B9CF8FE7089581E00895803F31F459
:101060000E94CF078195809359020895813F19F41A
:101070000E94CF07F8CF823F31F40E94CF078195BD
:10108000809358020895833F19F40E94CF07F8CF48
:10109000893F29F40E94960780935A0208958A3F57
:1010A00021F40E9496078195F7CF8B3F31F40E947F
:1010B0009607819580935B0208958C3F19F40E94F6
:1010C0009607F8CF843F31F4809157028160809376
:1010D00057020895853F21F4809157028260F7CF2F
:1010E000863F21F4809157028460F1CF873F21F43D
:1010F000809157028860EBCF883F21F4809157029E
:101100008061E5CF8D3F31F4809151028160809301
:10111000510208958E3F21F4809151028260F7CFF1
:101120008F3FB9F7809151028460F1CF80E008953C
:10113000F894E82FE295EF70F0E031A1282F2F709E
:1011400081E090E001C0880F2A95EAF7982F9095EA
:10115000932391A392A1892B82A3789408959091CF
:10116000750492FF06C0282F28712830F9F4877F74
:10117000846093FF06C0282F28712831F1F4877E00
:1011800084612091760420FF06C0382F38713830F2
:10119000D9F4877F816021FF06C0282F287128316C
:1011A000D1F4877E816194FD877E0895282F247174
:1011B0002430F9F68B7F8860DCCF282F247124310E
:1011C00001F78B7E8861DDCF382F3171313019F70F
:1011D0008E7F8860E0CF282F2171213121F78E7E0C
:1011E0008861E1CFCF93DF93EC0182389105A9F1BB
:1011F000D8F58133910509F496C048F589329105F7
:1012000009F48AC08A9709F495C0C11521E5D2076F
:1012100008F0BCC0C11530E5D30708F014C1C83EC2
:10122000D10508F09CC0C03ED10560F5C83AD10593
:1012300008F087C0C53AD10508F0FDC0C130D1051E
:1012400009F12097F9F0C430D105E0F440C08533AE
:10125000910509F45AC0C997C1F68091750483704D
:1012600089F0C0EED0E00EC0833E910599F170F494
:10127000803E910501F1823E910539F68091750419
:1012800082FD21C0CE01DF91CF910895863E910568
:1012900061F1873E910571F1843E910509F0B5CF6A
:1012A0008091760481FFEECF80917504C7EED0E087
:1012B00084FD0DC0E7CF8091750480FD12C190912F
:1012C000760490FFDFCFC3EED0E084FFDBCFD0E029
:1012D000C0E0D8CF8091750482FD06C1909176045C
:1012E00090FDBFCF84FFCECFF2CF8091750483FDF8
:1012F000DDCFC8CF8091750483FDF9C0909176044D
:1013000091FFF0CFC4EED0E0BDCF8091750485FF92
:10131000B9CFC9E2D0E0B6CF8091750485FFB2CFD6
:10132000C5E3D0E0AFCF8091750486FFABCFCAE2B2
:10133000D0E0A8CF8091750486FFA4CFC1E3D0E0B0
:10134000A1CFCF3BD10518F6C85AD0E0CC0FDD1F96
:10135000CA5DDE4F0990D881C02DD46493CFC115EA
:1013600040E2D40758F4C11581E0D80708F08ACFCD
:10137000C03FD10508F4ABCFD06584CFC11590E450
:10138000D90708F4A4CFDF70D06A7CCFC11525E55A
:10139000D20700F5C11534E5D30708F08AC0C1159E
:1013A00043E5D40708F071C0C11582E5D80708F4F9
:1013B00067C0CE018370992721E030E002C0220F80
:1013C000331F8A95E2F7C695C69580E2C89FE00173
:1013D000112452C0C11599E5D907A8F4C11528E513
:1013E000D20708F06BC0C11536E5D30708F06FCF00
:1013F0008C2F0E94AF08C82FD0E0DC2FCC27CC2741
:10140000DF71D0623FCFC1154AE5D40708F45BC055
:10141000CE0190568115904208F059CF8D2F8F71D3
:101420000E94AF0890E0982F882788279F719C0121
:101430002C2BE901E6CFC55AD0E0CD5DDE4FC88147
:10144000D0E0D0641FCFCE01E4E096958795EA9571
:10145000E1F783702C2F26952695237040E2249F78
:1014600090011124382B8C2F8370C1E0D0E002C092
:10147000CC0FDD1F8A95E2F7C22BD32BDC6802CF9D
:10148000DC2FCC27C16FD06AFDCECE0183709927A7
:1014900021E030E002C0220F331F8A95E2F7C695A3
:1014A000C69590E2C99FE0011124C22BD32BDA68C4
:1014B000E9CEDC2FCC27C46FD06AE4CEDC2FCC275A
:1014C000C06FD06ADFCE8C2F8F700E94AF0834E0DF
:1014D000D695C7953A95E1F7CF709C2FEC01D0696E
:1014E000D1CEC9E3D0E0CECEC2EED0E0CBCEC6EEB8
:1014F000D0E0C8CE80912402882331F010922402DB
:1015000010922302109222020895CF93C82F809147
:10151000760482FD0CC0809124028C1741F00E9459
:10152000A0059093230280932202C0932402CF91BE
:10153000089580959091AA0498239093AA04089501
:1015400080959091C40298239093C402089590913D
:10155000C402892B8093C402089510920102109254
:1015600000021092FF0108958091930390919403DB
:10157000892B89F00E94A00520912202309123023C
:10158000AC01421B530B81E02091930330919403F3
:101590004217530708F480E0817008958091FE019E
:1015A00081111092FE01089590911A019923D1F0B2
:1015B0009091750497FF16C0E82FE695E695E6959D
:1015C000EE31E0F4F0E0EC58FE4F282F277081E078
:1015D00090E001C0880F2A95EAF7809592818923CF
:1015E00082830895E6E7F1E09191891303C0DF015A
:1015F00011971C9291E0EC37F907B1F7089590919B
:101600001A019923C1F09091750497FF14C0E82F37
:10161000E695E695E695EE31F8F4F0E0EC58FE4FED
:10162000877021E030E001C0220F8A95EAF78281BD
:10163000822B82830895A6E7B1E0EFEF90E02D9131
:10164000821751F0EF3F19F4211101C0E92F9F5F7C
:101650009630A9F7EF3F09F408950E2E000CFF0B0A
:10166000EC58FE4FE6CF2091FD019091BC0129136B
:1016700002C080E0089530E0F90153E0EE0FFF1F53
:101680005A95E1F7E354FE4F5181561306C050813D
:10169000581303C05281541304C02F5F3F4F27706B
:1016A000E6CF81E008958091FD019091BC019813EF
:1016B00001C008958F5F8770FACF9E3F49F1E82FF0
:1016C0002AE0929FE00D11249E2F9770E695E695F3
:1016D000E69583E0E89FF0011124EB55FE4F50E0C2
:1016E00040E080E0219130E0092E02C03695279538
:1016F0000A94E2F721703327042E01C0220F0A94C6
:10170000EAF7822B4F5F5F4F4330510559F7089539
:1017100080E008959E3F69F1E82F2AE0929FE00D56
:1017200011248E2F877041E001C0440F8A95EAF79B
:10173000E695E695E69583E0E89FF0011124EB55E8
:10174000FE4F30E020E070E05191DF011197CB01B6
:10175000022E02C0969587950A94E2F781708195D2
:101760008527842385278C932F5F3F4F23303105B6
:1017700059F7089592959F70963091F058F4925FC2
:101780009F70923058F4803F19F030F4883E30F466
:1017900081E008959A5FF4CF843FD1F380E008950B
:1017A000883EB0F3813FD1F7F3CF9C013A952115E4
:1017B0003F4150F5FC01EE27F170BC0166277270C5
:1017C000AC01442754709C012227387094FF0EC04E
:1017D00080E1EF2B09F480E0672B09F08062452B54
:1017E00009F08064232B89F08068089581E0EF2B55
:1017F00009F480E0672B09F08260452B09F08460D2
:10180000232B19F08860089580E008958093770471
:1018100070937904609378048091A8048430F9F47B
:101820008093E9008FEF9091E800815095FD06C00C
:1018300095ED9A95F1F700008111F5CF8091E800C0
:1018400085FF0DC050E040E063E070E087E794E082
:101850000E942B048091E8008E778093E800089521
:10186000BC0184E00C94060CBC0183E00C94060CD3
:101870009C0184E08093E9009FEF8091E800915003
:1018800085FD06C085ED8A95F1F700009111F5CF31
:101890008091E80085FF0CC050E040E066E070E019
:1018A000C9010E942B048091E8008E778093E800A4
:1018B0000895CF93DF93EC0180911A018823B1F151
:1018C0008091750487FF32C060E284E08093E90074
:1018D0008FEF9091E800815095FD06C095ED9A95A7
:1018E000F1F700008111F5CF8091E80085FF1BC062
:1018F00080911A0170E050E040E0811104C050E096
:1019000040E068E070E0CE010E942B048091E80086
:101910008E778093E80080E2FE01ADE7B4E00190AD
:101920000D928A95E1F7DF91CF91089568E081E00B
:10193000CDCF81E08093E00080E28093D8001092C8
:10194000C9008FE19EE40197F1F700C0000087E035
:1019500090EBDC018093AB049093AC04A093AD04B6
:10196000B093AE0488E19CE00FB6F894A8958093FC
:1019700060000FBE90936000FFCF019708F40895B8
:10198000EFE9FFE03197F1F700C00000F6CF0F93C9
:101990001F93CF93DF9301E913E0C7E6D1E0CE01B7
:1019A0000E94F332F80181938F012196CB38F1E048
:1019B000DF07A9F7C0E9D5E0FE0185919491009772
:1019C00011F0FC0109952C96F6E0CC38DF07A1F761
:1019D000DF91CF911F910F9108950F931F93CF9394
:1019E000DF93843030F5643020F54A3010F5C42F91
:1019F000D0E0CC0FDD1F24E1629FC00DD11D11246A
:101A000030E5839FC00DD11D1124CE0187960E9421
:101A1000F332082F10E0102F0027CE0188960E9485
:101A2000F3329801282BC901DF91CF911F910F91BB
:101A3000089590E080E0F8CF462F2091C2023091C7
:101A4000C302232B91F47E3F39F46E3F71F48091F1
:101A5000C0029091C1020895843038F4743028F4A3
:101A60006A3018F4672F0C94ED0C90E080E0089534
:101A7000CF92DF92FF920F931F93CF93DF936C016E
:101A80000091A90480912502082BC7E0D0E010E066
:101A9000FC2EC8010C2E02C0959587950A94E2F79A
:101AA00080FD0CC02197A0F7F12C8F2DDF91CF91F5
:101AB0001F910F91FF90DF90CF900895B6018C2F6A
:101AC0000E941C0D0E94F208019761F3EECFCF93A4
:101AD000DF93EC010E94380DBE010E941C0DDF91C6
:101AE000CF910C94F208FC0186819781009721F038
:101AF0000E94F2080C94BA0B808191810E94670DBC
:101B0000F9CF1F93CF93DF9300D000D00F92CDB7C2
:101B1000DEB749835A8389819A816623B9F02223EB
:101B2000A9F00E94380D182F682F89819A810E9490
:101B30008A0B69817A81812F0F900F900F900F90FF
:101B40000F90DF91CF911F910C941C0D0E945D0BA3
:101B5000182FEFCFFC01262F86819781009739F44B
:101B6000408151816281738184810C94810D08953B
:101B700083E290E00E94F332863889F484E290E0B8
:101B80000E94F332813059F485E290E00E94F332F2
:101B900091E08A3009F090E0892F8170089580E00B
:101BA000FCCFCF9384E090E00E94F332C82F82E212
:101BB00090E00E94F332982F8C2FCF910895DB0193
:101BC000FC013296259134914217530758F0FC01DD
:101BD000349665917491A901CD010E94D33290E0B1
:101BE00080E008958FEF9FEF08950F931F93CF9399
:101BF000DF9301E913E0C7E6D1E0CE010E94F332A2
:101C0000F80161918F01681719F0CE010E9401332C
:101C10002196CB38F1E0DF0781F7DF91CF911F915B
:101C20000F910895DA019C012E5F3F4FF901459114
:101C30005491F90125913491A217B30758F0FC0192
:101C40003496859194910E94D3320E94F50D90E0D4
:101C500080E008958FEF9FEF0895CF93DF93CBE25D
:101C6000D2E060E0CE010E9401332196C11584E0EC
:101C7000D807B9F7DF91CF9108950F931F93CF93B2
:101C8000DF938901843048F5643038F54A3028F50F
:101C900021153C4531F42091BE023091BF02232B27
:101CA000E1F0C42FD0E0CC0FDD1F94E1699FC00D9F
:101CB000D11D112490E5899FC00DD11D1124612FE4
:101CC000CE0187960E940133602FCE018896DF9166
:101CD000CF911F910F910C940133DF91CF911F9100
:101CE0000F910895CF93C82F6FEF811166E883E2BB
:101CF00090E00E9401336FEFC11161E084E290E057
:101D00000E9401336FEFC1116AE085E290E0CF914C
:101D10000C940133CF93C92F682F84E090E00E9488
:101D200001336C2F82E290E0CF910C9401339B0140
:101D3000883070F49AE0899FB001112465577E4F76
:101D40004AE050E0C9010E94E33290E080E008954B
:101D50008FEF9FEF08958F929F92AF92BF92CF9295
:101D6000DF92EF92FF920F931F93CF93DF93CDB744
:101D7000DEB72A970FB6F894DEBF0FBECDBF0AEBD1
:101D800013E0F12CE12C82E4C82E89E2D82E9CE6E7
:101D9000A92E99E2B92E2BEA822E28E2922EF80182
:101DA000D182C082B382A28295828482F58AE48A3B
:101DB000BE016F5F7F4F8E2D0E94970E892B29F4F5
:101DC00089859A85F801938B828BFFEFEF1AFF0AC2
:101DD0000A5E1F4F88E0E816F10409F72A960FB64D
:101DE000F894DEBF0FBECDBFDF91CF911F910F9151
:101DF000FF90EF90DF90CF90BF90AF909F908F902B
:101E00000895CF92DF92EF92FF920F931F93CF939B
:101E1000DF93CDB7DEB72A970FB6F894DEBF0FBEBB
:101E2000CDBFEEE6F2E080E5DF011D928A95E9F78D
:101E3000EDE4F3E088E3DF011D928A95E9F78EE691
:101E4000C82E82E0D82E7F010BED11E0F701D18280
:101E5000C0824AE050E0B801CE0101960E94E33210
:101E600088E0FE013196D60101900D928A95E1F746
:101E700089859A85D70113969C938E931297BAE021
:101E8000CB0ED11CE7E0EE0EF11C065F1F4F0B32AC
:101E9000F2E01F07D9F62A960FB6F894DEBF0FBE00
:101EA000CDBFDF91CF911F910F91FF90EF90DF9009
:101EB000CF9008954F925F926F927F928F929F92F0
:101EC000AF92BF92CF92DF92EF92FF920F931F9348
:101ED000CF93DF93CDB7DEB728970FB6F894DEBF68
:101EE0000FBECDBF8E010F5F1F4F88E0F80111922A
:101EF0008A95E9F794E5E92E91E0F92E680128E545
:101F0000422E21E0522E66246394712C42E6842EE8
:101F100041E0942EF70181917F018F3F09F445C084
:101F2000F894E82FE295EF70F0E021A18F70A30103
:101F300002C0440F551F8A95E2F7CA01922F982BD1
:101F400091A392A18095892382A3789400C0E8E5AB
:101F5000F1E021E030E0B12CA12C41914F3F09F498
:101F600076C0A42FA295AF70B0E090968C9190E0CF
:101F70004F7002C0959587954A95E2F780FD67C03E
:101F8000C901A82AB92A220F331F8E169F0629F7E6
:101F9000F701319780818F3F11F00E94980850EA35
:101FA0005A95F1F7F601B182A082F2E0CF0ED11C72
:101FB0004E145F0409F0AECF48E050E0B80189E26A
:101FC00092E00E94C632FF24F394009709F4F12CAA
:101FD000892B09F43FC088E0F801A9E2B2E0019042
:101FE0000D928A95E1F781E0809328020E94A00576
:101FF00090932702809326028091260290912702D7
:102000000E949105059750F18091290290912A0232
:10201000909348028093470280912B0290912C026A
:1020200090934A028093490280912D0290912E0252
:1020300090934C0280934B0280912F02909130023A
:1020400090934E0280934D021092280207C090E0B8
:1020500080E097CF809128028111CECF8F2D2896D6
:102060000FB6F894DEBF0FBECDBFDF91CF911F91A9
:102070000F91FF90EF90DF90CF90BF90AF909F9027
:102080008F907F906F905F904F9008958091C402E1
:102090009091AA04892B8093740180912402882353
:1020A00019F18091930390919403892B29F00E9458
:1020B000B40A81110E947A0A8091740190912402DD
:1020C000892B8093740180911A018823D9F1809122
:1020D000750487FF37C08EE1E6E7F1E090E08150BC
:1020E00098F591110E947A0A40E250E062E072E0B5
:1020F00084E791E00E94C632892B59F180E2E4E73F
:10210000F1E0A2E0B2E001900D928A95E1F7E09152
:102110006C04F0916D043097E1F080911A018823EE
:1021200059F08091750487FF07C0809174018093F6
:10213000750186E0809374010280F381E02D84E7CD
:1021400091E0099486E0C8CF2191222341F29F5F5C
:10215000C6CF0895EF92FF920F931F93CF93DF9313
:10216000EC018A85811134C0EB80FC8087E5F81A88
:1021700026E12E9DC0012F9D900D1124DC01A65457
:10218000BC4F1496ED91FC911597309731F0549611
:102190006D917C9180549C4F099586E18E9D8001C4
:1021A0008F9D100D112406541C4FF80187810E9449
:1021B000A00AF80180850E94990A0E9446101882A0
:1021C00019861B861E821D821092B9031092B803D5
:1021D000DF91CF911F910F91FF90EF900895CF93D2
:1021E000DF93EC018989811118C081E0898B8F818F
:1021F0000E94A70A8091AA049885892B8093AA043B
:102200000E944610EA81FB81309739F06C897D8904
:10221000CE010696DF91CF910994DF91CF91089579
:1022200080911801877F8093180182E00E94990AAB
:102230008091180184FF06C08F7E8093180182E090
:102240000E94A70A8091180185FF06C08F7D8093A8
:10225000180180E20E94A70A0C94461090E080E0EA
:102260000E94C20590E080E00E94AC051092AA0492
:102270000E94461086E0E6E5F2E0DF011D928A95B5
:10228000E9F71092500210924F02109251020C94F2
:10229000EC068093A9040C942E118091A904982F28
:1022A0009670963019F488600C944911877FFCCFA2
:1022B00021E030E001C0220F8A95EAF72095809155
:1022C000A90482230C9449119091010280958923DD
:1022D00080930102282F277091F4282F082E000CDC
:1022E000330B9217130659F09091760492FD07C0B4
:1022F0008595859585950E9458110C94AD0A089591
:102300009091760492FB222720F9281769F080FB30
:1023100092F99093760480917504909176040E94CE
:102320008A0E82E00C946411089521E030E001C02F
:10233000220F8A95EAF78091A904822B0C94491107
:102340009091760492FD10C098E0899F900111242D
:10235000622B609301020E9495110E94A005909348
:1023600000028093FF0108950C949511809325023B
:102370000C942E111092C40280911A01E6E7F1E04C
:10238000882359F08091750487FF07C08EE1DF0133
:102390001D928A95E9F70C942E1186E0F8CF1F93D1
:1023A000CF93DF93CDB7DEB7AA970FB6F894DEBF11
:1023B0000FBECDBF80EA94E02091F100DC012D93A7
:1023C000CD01B4E0883A9B07B9F78091A10483302E
:1023D00009F472C0B8F4813009F449C0823009F4BC
:1023E000B3C08091E80083FF96C28091A0049091D1
:1023F000A1049A3008F08FC2E92FF0E0E15CFC4CB8
:102400000C94B0328A3009F48EC08B3009F471C05C
:10241000893039F78091A004813219F78091A404A2
:102420009091A504009711F00297D9F68091E800E9
:10243000877F8093E8008091E80082FF38C0909108
:10244000F3008091F200029731F48091F100813025
:1024500011F0863021F48091F10080937C0480910A
:10246000E8008B778093E8000E947D04BACF8091CA
:10247000A004813A09F0B5CF8091E800877F80936E
:10248000E8008091A4049091A504892B61F460E296
:102490008DE794E070E00E942F058091E8008B7733
:1024A0008093E8009ECF60E090E080E0F3CF8091E1
:1024B000A8048111C0CF95CF8091A004813A09F082
:1024C00090CF8091A4049091A504892B09F089CF25
:1024D0008091E800877F8093E8008091E80080FF8A
:1024E000FCCF80911A018093F1008091E8008E77F3
:1024F000B9CF8091A004813209F073CF8091A404F8
:102500009091A504892B09F06CCF8091E800877F1A
:102510008093E8000E947D048091A20480931A01B8
:102520000E94BA115ECF8091A004813209F059CF88
:102530008091E800877F8093E8000E947D0480916D
:10254000A30480937B044DCF8091A004813A09F0CD
:1025500048CF8091E800877F8093E8008091E80071
:1025600080FFFCCF80917B04BECF803899F0823809
:1025700009F0D1C18091A4048F70873008F0CBC1DD
:102580008093E9008091EB0085FB882780F9109209
:10259000E90006C080919D0490919E049111826093
:1025A0009091E800977F9093E8008093F10010925B
:1025B000F1008091E8008E77AAC1882309F498C1C0
:1025C000823009F0A8C18091A20481119BC1809141
:1025D000A4048F702FEF280F263008F09CC1809341
:1025E000E9002091EB0020FF8DC1933031F4809100
:1025F000EB0080628093EB0085C19091EB009061CD
:102600009093EB0021E030E001C0220F8A95EAF7B9
:102610002093EA001092EA008091EB008860EACFF4
:10262000811179C11091A2041F778091E300807815
:10263000812B8093E3008091E800877F8093E800FE
:102640000E947D048091E80080FFFCCF8091E30030
:1026500080688093E30082E0111183E08093A804F6
:102660005AC18058823008F056C12091A20430919E
:10267000A3042C3DE3E03E07A1F583E08A838AE2D0
:1026800089834FB7F894DE01139620E03EE051E2D3
:10269000E32FF0E050935700E49120FF03C0E29550
:1026A000EF703F5FEF708E2F90E0EA30C0F0C7967A
:1026B0008D939D932F5F243159F74FBF8091E80090
:1026C000877F8093E8006AE270E0CE0101960E9465
:1026D0002F058091E8008B778093E8001CC1C0969D
:1026E000E7CF8091A4049091A504432F5527433050
:1026F000510509F44AC078F54130510509F485C007
:102700008BE590E0E2E8F6E04230510509F003C1C4
:102710002091E800277F2093E8002091A6043091C3
:10272000A7048217930708F49C0140E021153105A6
:1027300009F070C041116EC08091E80082FDC9CFE0
:102740008091A804882329F2853019F28091E8004D
:1027500083FFF2CFBECF4132510509F447C0423268
:10276000510509F0D8C08330910508F0D4C0FC01B0
:10277000EE0FFF1FEB59FE4F0190F081E02D8E59B7
:102780009E4FDC018C9190E01DC033272130310534
:10279000E9F02115310579F022303105F9F02330C7
:1027A000310509F0B8C0EFEEF6E0E4918E2F90E02D
:1027B000EFEEF6E007C0EDE3F7E0E4918E2F90E056
:1027C000EDE3F7E0009709F4A6C0A2CFEDE2F7E051
:1027D000E4918E2F90E0EDE2F7E0F4CFEDE0F7E04A
:1027E000E4918E2F90E0EDE0F7E0ECCF833091059F
:1027F00008F091C0880F991FFC01E559FE4F019028
:10280000F081E02D89E090E083CF82E190E0EDED72
:10281000F6E07ECF8091A804882309F45ACF853052
:1028200009F457CF8091E80083FD53CF8091E800F1
:1028300082FD82CF8091E80080FF78CF9091F300F5
:102840008091F2002115310519F08830910550F082
:1028500041E0089709F040E08091E8008E7780938E
:10286000E80064CF44914093F10031962150310942
:102870000196E8CF803809F04EC08091E800877F4C
:102880008093E80080919F048093F10092CE8111A3
:1028900042C01091A2041230F0F58091E800877FC9
:1028A0008093E80010939F040E947D04112311F08F
:1028B00084E005C08091E30087FDFACF81E080933A
:1028C000A80442E061EC81E00E949C0442E261ECD9
:1028D00084E00E949C0442E261EC82E00E949C043D
:1028E00042E260EC83E00E949C048091A80413C043
:1028F0008091A204813079F481E0933009F080E086
:1029000080939E041092E9008091E800877F809375
:10291000E8000E947D048091E80083FF0AC0809156
:10292000E800877F8093E8008091EB0080628093CD
:10293000EB00AA960FB6F894DEBF0FBECDBFDF91B5
:10294000CF911F910895E1E9F3E0128E138E8FEA83
:1029500090E09183808325E0248F88E893E193833E
:1029600082838AE090E09583848344E150E057833A
:10297000468368E070E071876087938782874EE1C5
:1029800050E0558744879787868740E550E0518B14
:10299000408B738B628B68E270E0758B648B62E3B3
:1029A00070E0778B668B68EC70E0718F608F158EAE
:1029B000978F868F51A340A322A30E94F50D0E94FA
:1029C000BA11109276041092750490E080E00E9493
:1029D0008A0E0C94C70C7F928F929F92AF92BF92F7
:1029E000CF92DF92EF92FF920F931F93CF93DF93DB
:1029F000CDB7DEB764970FB6F894DEBF0FBECDBF7C
:102A0000A090BE02B090BF0281E090E09093BF0220
:102A10008093BE0286EFC82E83E0D82E00E07601B8
:102A200010E015C0F40125913491472D612F802FBE
:102A30000E943D0E82E0880E911C7394EAE07E12A3
:102A4000F1CFF4E1EF0EF11C1F5F143019F04701D4
:102A5000712CE8CF0F5F80E5C80ED11C0430F9F669
:102A60000E94A3141A8219821C821B821E821D825C
:102A700018861F8288EC90E09A8789870BE811E01E
:102A80004AE050E0B801CE0101960E942533065F6E
:102A90001F4F0B3DE1E01E0799F77E01FBE0EF0EB3
:102AA000F11C8AE0F70111928A95E9F74AE050E0BB
:102AB000B801C7010E942533065F1F4F0B32F2E0B9
:102AC0001F07A1F7B092BF02A092BE0264960FB694
:102AD000F894DEBF0FBECDBFDF91CF911F910F9154
:102AE000FF90EF90DF90CF90BF90AF909F908F902E
:102AF0007F90089580E00E94720E60E086E290E090
:102B00000E9401330E94EB140E942D0E81E00C9470
:102B1000720ECF92DF92EF92FF928FEF9FEF4430D1
:102B2000510508F46AC0FB01C080D180E280F380C7
:102B30000E94BA1180917504C0FA80F9B701A6010C
:102B4000769567955795479540FB81F9B701A601A2
:102B500022E076956795579547952A95D1F740FBE2
:102B600082F9B701A60133E07695679557954795A9
:102B70003A95D1F740FB83F9B701A601E4E07695D9
:102B8000679557954795EA95D1F740FB84F9B701CA
:102B9000A601F5E07695679557954795FA95D1F793
:102BA00040FB85F9B701A601A6E076956795579594
:102BB0004795AA95D1F740FB86F9B701A601B7E082
:102BC0007695679557954795BA95D1F740FB87F964
:102BD0008093750480917604D0FA80F9D1FACC24E0
:102BE000C0F8C0FA81F980937604809175049091C1
:102BF00076040E948A0E90E080E0FF90EF90DF90D4
:102C0000CF900895882321F00E94990A0C944610D1
:102C10000895882339F09091AA04982B9093AA04E0
:102C20000C9446100895882321F00E94A00A0C9469
:102C300046100895882321F00E94A70A0C9446109C
:102C40000895882309F452C0823871F40E94D8058F
:102C500081FF4CC089E30E94FF0A0E94461089E36D
:102C60000E94D40A0C944610833859F40E94D80567
:102C700080FF3CC083E50E94FF0A0E94461083E566
:102C8000EFCF843859F40E94D80582FF2FC087E423
:102C90000E94FF0A0E94461087E4E2CF9CEF980F43
:102CA000913AF0F290E2980F983050F4877091E0EA
:102CB00001C0990F8A95EAF7892F0E94A00AD2CF06
:102CC0009BE5980F933020F490E080E00C94C205CF
:102CD00098E5980F973120F490E080E00C94AC05D3
:102CE000803F20F00E9413070C94EC060895CF93C8
:102CF000DF93EC010E942116CE010E94D50B9E01AC
:102D0000205E31092830310510F0CD2B21F4DF9100
:102D1000CF910C941316DF91CF910C940216CF93A0
:102D2000C82F882309F4AAC08238C1F40E94D805AC
:102D300081FDA4C089E30E94FF0A0E9446102FEF84
:102D400081EE94E0215080409040E1F700C0000007
:102D500089E30E94D40ACF910C9446108338A1F4E1
:102D60000E94D80580FD8AC083E50E94FF0A0E9468
:102D700046102FEF81EE94E0215080409040E1F723
:102D800000C0000083E5E5CF8438A1F40E94D80597
:102D900082FD74C087E40E94FF0A0E9446102FEF54
:102DA00081EE94E0215080409040E1F700C00000A7
:102DB00087E4CFCF8CEF8C0F813A88F580911A0190
:102DC000882301F18091750487FF1CC0EC2FE695E4
:102DD000E695E695F0E0EC58FE4F828190E04C2FAE
:102DE000477021E030E002C0220F331F4A95E2F71E
:102DF00082239323892B79F08C2F0E94D40A0E947E
:102E0000461009C0E6E7F1E08191C817A9F321E077
:102E1000EC37F207C9F78C2F0E94FF0A9CCF80E2A3
:102E20008C0F883048F4C77081E001C0880FCA95C4
:102E3000EAF70E94A70A8FCFEBE5EC0FE33040F4EE
:102E4000F0E0ED5DFE4F808190E0CF910C94C205E3
:102E5000E8E5EC0FE73150F4F0E0EE0FFF1FEA5D1C
:102E6000FE4F80819181CF910C94AC05C03F30F032
:102E70008C2F0E942E08CF910C94EC06CF910895D0
:102E80001F93CF93DF93182FC091B103D091B2035A
:102E9000893321F0C091AF03D091B003812F0E94FC
:102EA0008F16209731F4812FDF91CF911F910C94D1
:102EB00021168FE99FE00197F1F700C000002197EC
:102EC000F0CF0F931F93CF93DF93C42FD22FFC012A
:102ED00082818823A1F04093B7030E94A0059093BC
:102EE000B6038093B503C77081E001C0880FCA950F
:102EF000EAF7DF91CF911F910F910C941A16109160
:102F0000B703141339C08091B5039091B6030E94A2
:102F100091052091A9033091AA038217930760F5C8
:102F2000C0E2CD0F1D17B9F080E2810F883040F468
:102F3000177081E001C0880F1A95EAF70E941316F6
:102F4000C83048F481E09D2F977001C0880F9A9592
:102F5000EAF70E941A16802F0E944017C83098F492
:102F6000D77081E001C0880FDA95EAF7DF91CF9141
:102F70001F910F910C941316C77081E001C0880F48
:102F8000CA95EAF7F3CFDF91CF911F910F91089582
:102F9000AF92BF92CF92DF92EF92FF920F931F9367
:102FA000CF93DF93EC018AE0A82E2881222309F435
:102FB0008CC02130C9F599818A81913021F4229603
:102FC0000E94401705C0923029F422960E948F1665
:102FD0002196EBCF933021F422960E942116F8CF50
:102FE000943011F02196F4CF229630E020E0AE012B
:102FF0004F5F5F4F8053990B8A30910550F02150FD
:10300000310930F38FE99FE00197F1F700C000002C
:10301000F6CFA29EB001A39E700D11249C01260F35
:10302000371F8981EA01E3CFE22FF0E0E650FE4F3F
:10303000B490822F86958695869590E0FC01E651A6
:10304000FE4FE4902770F12C022E02C0F594E79415
:103050000A94E2F731E0E322FF24FC01E652FE4F3E
:10306000C490D12C022E02C0D594C7940A94E2F7E2
:1030700031E0C322DD24FC01E653FE4F049110E051
:1030800002C0159507952A95E2F701701127E11402
:10309000F10419F081EE0E948F16C114D10419F0C9
:1030A00086EE0E948F168B2D0E944017CD2819F0B6
:1030B00086EE0E942116EF2819F081EE0E9421165B
:1030C000012B09F485CF8CE27BCFDF91CF911F914B
:1030D0000F91FF90EF90DF90CF90BF90AF90089549
:1030E000CF93DF93EC010E94D50B9E01205E310946
:1030F0002830310510F0209739F40E941A168C2FD1
:10310000DF91CF910C948F160E940916F8CF662399
:1031100029F02091AA0422602093AA049C01305631
:10312000211540E2340720F0305E2115304108F4CB
:1031300099270C947018DF92EF92FF920F931F93D0
:10314000CF93DF937C018B01D42E8091180182FFF5
:103150008CC0C091E702D091E802CE15DF0521F0C6
:10316000E114F10409F081C0809118018B7F8093F4
:10317000180181FD73C08091E5029091E602A801DB
:10318000481B590B81E0209116013091170142171D
:10319000530708F480E08170F82E80911801F0FA4E
:1031A00081F980931801FE0183E0F695E7958A95F1
:1031B000E1F7EE71FF27EB53FD4F20813181AE0126
:1031C0004F70552781E090E002C0880F991F4A9503
:1031D000E2F7FF2009F444C0822B932B9183808374
:1031E0008091C40281FF08C08091180180618093A2
:1031F000180182E00E94A00A8091C40285FF08C0E5
:103200008091180180628093180180E20E94A00AD8
:103210006F2DCE010E948718DD2031F08091AC0324
:1032200085FF02C086FF3BC08091AF039091B00341
:103230000E94BD0C8091E7029091E8029C013056FB
:10324000211540E2340720F0305E2115304108F4AA
:1032500099270E9477160E9410111DC081E09BCF14
:103260008095909582239323B9CFC7019927970121
:103270003056211540E2340728F0305E21153041E8
:1032800008F0C7010E9477168091E7029091E8024A
:103290008E159F0501F31093E6020093E502DF917E
:1032A000CF911F910F91FF90EF90DF90089569EEFD
:1032B0007EEF90E080E00E941F3360E082E090E0CB
:1032C0000E94013360E083E090E00E94013310929D
:1032D000250260E084E090E00E94013360E082E239
:1032E00090E00E94013360E085E090E00E940133AD
:1032F00060E086E090E00E9401336FEF87E090E0AD
:103300000E94013340E050E0BA0188E090E00E9462
:10331000133360E08DE090E00E94013340E050E024
:10332000BA0188E190E00E94133360E087E190E009
:103330000E94013340E050E0BA018CE190E00E942D
:10334000133370E060E080E290E00E941F3340E0C1
:1033500050E0BA0188E190E00E94133380E00E94BF
:10336000720E0E947A1540E050E0BA018FE090E0C2
:103370000E94133340E050E0BA0183E190E00C94E6
:1033800013339F92AF92BF92CF92DF92EF92FF9250
:103390000F931F93CF93DF9300D000D0CDB7DEB74C
:1033A0007C01DC0113964D915C91149711966C9100
:1033B00011978C910E94E4058111B6C061E0C701AC
:1033C0000E94AA0D8C01F701828181114CC0D701A6
:1033D00012968C91811186C00031BFE51B0709F45C
:1033E00055C10131EFE51E0709F454C16801E7E555
:1033F000DE1A882309F450C1FFEFCF16D10409F07B
:1034000008F47CC1D70112968C91882309F4FEC17F
:103410008091A101882309F4E3C180919F019091DB
:10342000A0010E9491058C32914008F0EFC1C801C3
:1034300090568115E0E29E0720F0905E8115904144
:1034400008F4112780919E01853008F0C6C1E82F4D
:10345000F0E0EE0FFF1FEC56FE4F118300838F5FED
:1034600080939E0151C080910C0190910D010196B5
:1034700009F4ADCFEAEBCE2EE3E0DE2EB12CA12C89
:103480009924939480910C0190910D018A159B05CC
:103490000CF49DCFF60186818823E9F08185928521
:1034A0000817190739F48091B8039091B9030817E8
:1034B000190789F0D6011F969C921F971C961C93A2
:1034C0000E931B97C6010E94EF10C60106960E943C
:1034D000AA101092AA04BFEFAB1ABB0AE6E1CE0E07
:1034E000D11CD0CF980122513F452031310508F041
:1034F00057C78FEF93E00E94F3327EEED72ED00EA7
:103500000BE212E0882361F180910102877061F083
:10351000D70112968C91882339F08091760482FD30
:1035200003C082E00E9464110F900F900F900F90E3
:10353000DF91CF911F910F91FF90EF90DF90CF908F
:10354000BF90AF909F9008950115F4E01F07E1F23E
:10355000C8010E94F332811101C0DA940F5F1F4F3E
:10356000D110F2CF19821A821B821C8299249A945C
:1035700068012FEFC21AD20AC8010E94F332898370
:103580001A82882309F4C0CF813009F073C0580132
:1035900032E0A30EB11CC6010E94F332C82E8A830A
:1035A000882309F4B1CFC5010E94F332D82E8FEFE2
:1035B0008C0D833068F4580143E0A40EB11CDB820B
:1035C000DD2021F0CE0101960E94C8178501D0CFE1
:1035D0008BEF8C0D833030F5C8010396DB825C01E4
:1035E000DD20A1F3580154E0A50EB11C0E94F33276
:1035F0008C83882359F38B819C818130AFEF9A07AC
:1036000010F0982F8827B6E0CB1631F0E7E0CE1601
:1036100031F00E943229DACF0E940229D7CF0E94CE
:103620007C28D4CFF4E0CF12D1CF580124E0A20EF1
:10363000B11CC80103960E94F332DD2009F464CF67
:10364000882309F461CF8150990B989E9001999E2F
:10365000300D11244D2D4150550BCA01820F931F7F
:10366000019708F4B3CFAFE9BFE01197F1F700C0BD
:103670000000F6CFCE0101960E94C8175601A6CFD2
:1036800081E00E9495110E944D113ECF81E00E9481
:103690005811F9CF82E0FBCF2FEFC216D10411F001
:1036A00008F0B0CE64E672E08C2D0E94970E892B54
:1036B00029F586E18C9DF0018D9DF00D1124E654D5
:1036C000FC4F8681813009F062C080916402909144
:1036D0006502892B99F08091660290916702892B8F
:1036E00069F0809168029091690220916A0230919C
:1036F0006B02822B932B892B09F453C080910C0110
:1037000090910D018C159D0524F4D0920D01C0926D
:103710000C01F701828196E19C9D50019D9DB00CAA
:103720001124950126543C4F6901D90150968C9380
:103730005097928116968C911697992309F43FC061
:103740001A961C930E9319978F5F16968C930E946E
:10375000A005F60196878587809124028783809152
:10376000AA049091C402892B80870190F081E02DFA
:10377000309741F0D60154966D917C91C5018054EB
:103780009C4F09951093B9030093B8033BCE823048
:1037900009F0B4CF8091680290916902892B09F4F5
:1037A000ADCF26E12C9DC0012D9D900D1124865496
:1037B0009C4FDC0150961C920E94EF109FCF8823F3
:1037C00009F420CEF9018189882309F41BCEC501B3
:1037D00080549C4F0E94AA1015CE1092A10194CE45
:1037E00008322DE5120791F481E08093A1010E9437
:1037F000A0059093A00180939F0110929E01E4E99F
:10380000F1E08AE0DF011D928A95E9F78091AC032F
:1038100080FF35C00E94A0056C01F70182818823DA
:1038200009F45AC08091180182FF08C02AE332E0EF
:1038300040E0B60190E080E00E949B180B31FCE56F
:103840001F07E1F10C312CE51207F1F190911801FD
:10385000892F8E7F90FF81600A313CE51307B9F113
:10386000C8019056811540E2940728F0905E8115BA
:10387000904108F03FC01092E8021092E702033F27
:10388000FCE51F0709F47FC108F023C1083D3CE5B2
:10389000130709F472C1093D4CE5140709F48BC103
:1038A000073D5CE5150709F020C106E221EE41EE77
:1038B00067ED7CE5C7010E94611726CE8091180153
:1038C000816080931801CCCF809118018E7F809306
:1038D00018010E941011C4CF809118018F7E013E03
:1038E000110531F0053E1105C1F4809118018F7D5D
:1038F000809318018091180180FFC1CFF701828168
:103900000832110528F50E31110508F074C0043095
:10391000110580F58111AFCFB2CFC8019056811546
:10392000A0E29A0720F0905E8115904118F78091EF
:10393000180182FFA4CF8091AE0381FDA0CF2AE3BE
:1039400032E040E0B60190E080E00E949B1897CF03
:103950000933110558F40D32110518F40B32110515
:10396000C9F69091AC0392FDD5CF08C0043611057D
:10397000C1F3D0CF9091AC0394FDCCCF882309F450
:10398000A1C09091C40280912402282F292B322FAC
:103990003D7FB1F11092E8021092E7023091AC0342
:1039A00031FD2EC0F80143E0F695E7954A95E1F721
:1039B000EE71FF27EB53FD4F98012F70332781E005
:1039C00090E002C0880F991F2A95E2F780959095A4
:1039D00020813181822393239183808360E0C80119
:1039E0000E948718809124028D7F0E94850A82E0C0
:1039F0000E94641189CD9091AC0393FD8BCFBECF13
:103A000038E0F701AAE3B2E001900D923A95E1F7B0
:103A100010923C0210923E0210923D02A090E702EA
:103A2000B090E8020A151B05B1F53091AC0335FFE3
:103A300032C04091180141FB992490F841FF02C027
:103A400036FF29C04091E5025091E602B601641BA1
:103A5000750B4091A9035091AA0364177507D8F418
:103A600091FF08C08091180180618093180182E065
:103A70000E94A00A8091C40285FF08C080911801AD
:103A800080628093180180E20E94A00A692DC5011E
:103A90000E94871839CD9091180121FB91F99093DC
:103AA00018018D7F0E94850A1093E8020093E702B7
:103AB000D092E602C092E502809118018460809362
:103AC000180195CF970140E0B601C8010E949B18EC
:103AD0001BCD053F8CE5180709F461C008F459C0F7
:103AE000063FACE51A0709F460C0F70132813323C1
:103AF00009F462C41092B7030330FDE51F0708F014
:103B000060C00A3F2CE5120730F4C80182509C4582
:103B1000449708F060C00E94D10D90937604809382
:103B2000750401318CE5180709F463C108F0E0C0A1
:103B30000930ACE51A0709F44EC108F0AAC00530F7
:103B4000ECE51E0709F43BC108F095C003302CE5F5
:103B5000120709F42AC108F02EC180917504816012
:103B600002301C4509F424C18091750490917604BB
:103B70000E948A0E0E94BA11C7CC07E225EE45EEDC
:103B800068ED7CE597CE06E221EE40EE63EF7CE542
:103B900091CE07E225EE44EE64EF7CE58BCE06E2A3
:103BA00021EE42EE65EF7CE585CE07E225EE46EE9E
:103BB00066EF7CE57FCE08E221E045EE69ED7CE52D
:103BC00079CE01364DE5140709F4A5CF053A5DE538
:103BD000150709F4A0CF06315CE5150709F4F0C319
:103BE0000A35BDE51B0709F45AC108F036C10115B5
:103BF000FCE51F0709F443C10E3D1C4509F44CC107
:103C0000F70186819781009709F44DC10E94F2085F
:103C1000182F092FF701D280C580C2943FE0C3223C
:103C2000809101028770C1F0AD2CDD20B1F0892FA9
:103C3000807F803421F080E2810F883068F08091AD
:103C4000760482FD09C082E00E9464118091010225
:103C50008770AA24A3948111A12C902E92942FE016
:103C60009222FBE0F91508F4ABC1E92DF0E0E75B27
:103C7000FC4C0C94B03280917504806207305CE596
:103C8000150709F495C008F4A2C0809175048064FA
:103C90008FC0809175048B7F0D309CE5190709F466
:103CA00087C098F4809175048E7F0B30BCE51B07AC
:103CB00009F47EC0809175048C600C301C4508F4BA
:103CC00077C0809175048D7F73C0809175048F7E5D
:103CD0000F30FCE51F0709F46BC080917504877FE6
:103CE00000311C4508F464C0809175048F7D60C06C
:103CF0000D3F3CE5130709F478C050F505315CE54C
:103D0000150709F480C098F480917504837F03310E
:103D10009CE5190709F44CC008F46FC00E94BA1161
:103D200090917504892F97FB87F9805841C00B3F0C
:103D3000BCE51B0709F447C008F053C08091760426
:103D400081600A3F1C4509F00FCF809376040CCFA9
:103D500001302DE5120709F462C0B8F480917604B1
:103D60008C7F0F3F4CE5140781F3809176048360CC
:103D700001151D4550F380917604982F9095917010
:103D80008E7F892B90FB81F9E0CF01368DE51807F6
:103D900009F44BC0053A9DE5190709F44DC00230FE
:103DA0001D4509F0E1CE60E03BC080917504826062
:103DB00080937504D9CE809175048460F9CF809189
:103DC00075048860F5CF809176048260BECF8091C3
:103DD00075048061EDCF0E94BA11809175048068EE
:103DE000E7CF809176048E7FB0CF809176048D7F6F
:103DF000ACCF809175048F7BDBCF0E94BA1180918C
:103E000075048F77D5CF8091750482FB992790F93F
:103E100021E0922790FB82F990FB83F9C9CF61E002
:103E20008EE090E00E9401339FCE90917504892F1F
:103E30008F7E94FF8061BCCF90917504892F8E7F17
:103E400090FF8160B5CF8091A201811104C089E209
:103E50000E94D40AE0C285E3FBCF0B353DE5130792
:103E600001F10C351D4509F0CBCE8091760482FB23
:103E7000882780F991E089270E948011C1CE0E9495
:103E8000BA115FEF84E39CE0515080409040E1F72D
:103E900000C000000E94990C0E94571935CB81E0A8
:103EA000EBCF80E0E9CF828100811181882369F026
:103EB000C8010E94380DD82E682FC8010E948A0BB5
:103EC000B8018D2D0E941C0DA1CEC8010E945D0B72
:103ED000D82EF6CF202F2F70B22E802F807F19F092
:103EE000B29490EFB922DD20A9F0BB2059F080E216
:103EF000810F883010F0111107C08B2D0E94A70A86
:103F00000E944610812F5AC08091AA04B82AB0920C
:103F1000AA04F6CF812F0E942116BB2009F450C0BD
:103F200080E2810F883010F0111104C08B2D0E94A7
:103F3000A00A03C08B2D0E94990A0E94461040C01F
:103F4000302F3F70B32E802F807F803219F0B294D3
:103F500080EFB822112321F1113009F4A4C0DD2033
:103F600009F4ADC0CC2009F47DC020E0D7014C910C
:103F700011965C91119712966C91129713967C9101
:103F8000139714968C910E94810D8091AE0381FD50
:103F9000B9CFF701858180FFB5CF8F70858362C06F
:103FA0008091760482FF40C0DD20C1F1BB2029F062
:103FB0008B2D0E94A70A0E94461080E00E948F1657
:103FC000A92DA850BB0B149710F40E94D805812F7F
:103FD000902F0E94BA0B8111C4C11092A4011092BB
:103FE000A301AA20B1F08091010280FD12C0D70187
:103FF00012961C928595859585950E949511C7010D
:104000000E94C119809101028595859585950E9430
:10401000581160E0C7010E94AA0D86CA80E00E9484
:104020002116BB2069F282CFDD2001F1C11004C04E
:10403000809124028B2917C041E0C41206C08091F0
:1040400024028B290E94850ABBCF8091AD03823068
:1040500078F3C812EDCF0E947A0A8091FE01B8125F
:10406000B092FE018B2D0E941A16AACFC11006C075
:104070000E947A0A8B2D0E941316A2CF8091AD0365
:1040800051E0C5120BC0823008F49ACF8091C4026F
:104090008B2109F495CF0E94CE0AEACF823040F3FB
:1040A000C812E6CF8DCF8091B303DD2021F08C15AF
:1040B00008F486CFD7CFC81608F082CFDBCFCC204C
:1040C000C9F28091B1039091B203193321F080912C
:1040D000AF039091B0030E94BD0C812F0E94211666
:1040E0006FCF802F86958695837069F0813009F0B7
:1040F00067CF812F902F9370D11002C090E080E0A5
:104100000E94AC055DCF812F902F9370D11002C01B
:1041100090E080E00E94C20553CF812FDD2029F07E
:104120000E942E080E94EC064BCF0E941307FACF84
:10413000802F837091F5D11043CF412F4295469542
:104140004770440F440F812F8F70042E01C0880FD9
:104150000A94EAF7212F207114FF07C02FE030E006
:1041600001C0220F4A95EAF72095302F36953695F3
:104170003370323069F050F440912502313029F02B
:10418000822B84230E94B6111BCF842B822BFACF63
:10419000282B809125028227F5CF8695DD2011F00E
:1041A000802F8170882309F40BCF412F42954695CB
:1041B0004770440F440F812F8F70042E01C0880F69
:1041C0000A94EAF7212F207114FF07C02FE030E096
:1041D00001C0220F4A95EAF72095302F3695369583
:1041E0003370323069F050F44091A904313029F035
:1041F000822B84230E944911E3CE842B822BFACF99
:10420000282B8091A9048227F5CFF02FFF70BF2EB5
:10421000DD2029F08F2F0E949511812F24CF812F2F
:104220000E9413168B2D0E945811CACE123F89F19D
:1042300060F4103FB9F0113F81F0DD2009F48CC02B
:10424000C11060CE802F8F7128C0133F49F1143FF9
:10425000A1F78091760482FF2FC0802F8F71DD201F
:1042600011F31BC08091B303DD2079F0C81608F06C
:10427000A7CE202F2F7181E090E001C0880F2A95F2
:10428000EAF79091A9048927B5CF8C1508F498CE48
:10429000F0CF802F8F71D110C6CF0E94951190CE94
:1042A00080E0DD2009F4A6CF81E0902F9F7101C04E
:1042B000880F9A95EAF79ECF8091AD038230A0F1E6
:1042C0008091FE01DD20F1F00E94A00A80910102A0
:1042D0008770843041F40E94AD0A802F8F710E9454
:1042E0005811A12C6DCE8091AD03C816D0F7202FA8
:1042F0002F71B22E822F0E94951163E08B2D0E94A8
:10430000A011EFCF0E94A70A8091AD03C81640F01C
:104310000E94AD0A0E94CE0A64E0802F8F71EFCF19
:1043200081E00E946411DDCFDD2059F0302F3F7114
:10433000B32E832F0E94951163E08B2D0E94A01154
:104340003FCE81E00E94641141E04C1508F038CE68
:1043500082E00E94641134CEC110B3CE802F8F71E1
:1043600062CFDD2019F0C11038CE3BCEC11035CE62
:1043700020E0F701408151816281738184810E9434
:10438000810D8091AE0383FF28CE8091A30190918F
:10439000A401029709F021CE812F0E9440171DCE63
:1043A0000031FFE51F0709F46BC901312FE5120742
:1043B00009F01CC882E065C906311C4509F020CC13
:1043C0008091C402982F9A7A2091AB0320FF04C0F9
:1043D000482F447409F090E021FF04C0482F417138
:1043E00009F090E022FF04C0482F487809F090E0DF
:1043F00023FF03C0827209F090E0332309F423CD38
:1044000081E0911101C080E08093A20189E29111C5
:1044100085E30E94FF0A0E94461076C8CF92DF9281
:10442000EF92FF920F931F93CF93DF938091B90187
:10443000807F31F48091B601C091FD0181110BC0E4
:10444000DF91CF911F910F91FF90EF90DF90CF9070
:1044500008952196C7708091BC018C1789F3F09064
:10446000B401E090B501C090B701D090B801A601A9
:104470006E2D8F2D0E94E405D0E08111EACF8E01D0
:1044800083E0000F111F8A95E1F7F801E354FE4F16
:1044900081818E11DECF80818F11DBCF82818111EE
:1044A000D8CFE380F480EC18FD0860E084EB91E065
:1044B0000E94AA0D8091A9039091AA03E816F9061B
:1044C00040F68091B9018F7080618093B901F80145
:1044D000EE53FE4F80818F708061808384EB91E08A
:1044E0000E94C119DF91CF911F910F91FF90EF9022
:1044F000DF90CF900C94530B3F924F925F926F924C
:104500007F928F929F92AF92BF92CF92DF92EF9263
:10451000FF920F931F93CF93DF93CDB7DEB76597CD
:104520000FB6F894DEBF0FBECDBF8C0185E0F80159
:10453000DE01519601900D928A95E1F7D8014C90D9
:1045400011965C9011971296EC9012971396CD905D
:10455000DC9060E084EB91E00E94AA0D84EBA82E31
:1045600081E0B82E8090B7019090B801A4016091CD
:10457000B5018091B4010E94E4058111CAC1F09097
:10458000B601F601E819F9094F0160E0FF2009F4CE
:104590006DC1C5010E94AA0D6090A9037090AA0385
:1045A0003090B9018614970408F013C14091B70107
:1045B0005091B801B090B401A090B501832D807FD7
:1045C0006A2D09F0ADC08B2D0E94E405FE2C8111EF
:1045D0003BC0D80111968C9111978A1135C08C91EE
:1045E0008B1132C02091BA013091BB0116968D918A
:1045F0009C912817390741F5E11026C0832D8F7053
:1046000080618093B90184EB91E00E94C11980918F
:10461000B901F80185838F2D65960FB6F894DEBF3A
:104620000FBECDBFDF91CF911F910F91FF90EF9003
:10463000DF90CF90BF90AF909F908F907F906F90C2
:104640005F904F903F900895F4EF6F16F1E07F0672
:1046500020F48091AE0380FF21C0A601652D842D3A
:104660000E94E405811118C081E08E2580FF16C0EC
:104670004E2D652D842D0E94330B882379F084EB19
:1046800091E00E94C11988E0E4EBF1E0DF011D92A6
:104690008A95E9F7F12CBFCF80E0E8CFA601652D20
:1046A000842D0E94E405811124C081E08E25B82F5D
:1046B000B170CB2E80FF2BC04E2D652D842D0E9416
:1046C000330BD82E811123C0498A5A8A89899A8945
:1046D0000E94670D292F22952F70223060F0243020
:1046E00088F49F7061F0F8019581907F41F4FD2C72
:1046F00092CF80E0DCCF9F7011F08823C1F3805E01
:104700008830A8F3C8010E94C119DC2CF0CFEE203C
:1047100009F481CF8091B90181608093B901BACF4A
:104720008B2D0E94E405811124C0D80111968C9133
:1047300011978A111EC08C918B111BC02091BA0158
:104740003091BB0116968D919C91179728173907C8
:1047500081F4E1100EC015963C92C8010E94C11967
:1047600088E0F801A4EBB1E001900D928A95E1F7A1
:1047700052CFC8010E94730D882339F1EE2029F130
:104780008091B9018032A0F02091B4013091B5013F
:104790003A8729871B86DD86CC868E878091BA0171
:1047A0009091BB01988B8F87CE0109960E94C11909
:1047B00088E0F801A4EBB1E001900D928A95E1F751
:1047C0000E940E22FF24F39426CFC8010E94C11933
:1047D000F9CF832D807F09F452CF9090B40180905F
:1047E000B5014091B7015091B801682D892D0E9403
:1047F000E40581111CC0F8018181881118C08081F5
:10480000891115C02091BA013091BB018681978131
:104810002817390761F4E1100AC03582C8010E94E7
:10482000C11988E0D5011D928A95E9F7F4CEC80137
:104830000E94730D882349F2EE2039F28091B9016C
:10484000803208F4B5CF2091B4013091B5013A839C
:1048500029831B82DD82CC828E838091BA01909164
:10486000BB0198878F83CE010196A0CF84EB91E0A6
:104870000E94AA0D8091A9039091AA038816990617
:1048800080F6FE2CEE2009F4A0CFE090B401D09089
:10489000B5014091B7015091B8016D2D8E2D0E9448
:1048A000E405811128C0F80181818D1124C0808127
:1048B0008E1121C02091BA013091BB018681978170
:1048C00028173907C1F48091AE0382FD49CF90913A
:1048D000B90190FD45CF907F09F442CF8091B90195
:1048E0008583903F09F439CF982F907F905F8F7028
:1048F000892B858332CFC8010E94730D811158CF57
:104900008091B90181608093B901C8010E94C119E9
:1049100082CEEE2009F459CFC8010E94730DF82E03
:10492000882309F452CF88E0F801A4EBB1E00190AC
:104930000D928A95E1F78091B4019091B5010E94A2
:10494000670D0E940E2267CECF93DF93CDB7DEB7FF
:1049500060970FB6F894DEBF0FBECDBF29873A87A8
:104960004B875C876D877E878F87988BCE010996F2
:104970000E947C2281112FC088E0FE013996DE0161
:10498000119601900D928A95E1F74C855D856A85B7
:1049900089850E94E40581111EC0A091BC01B0E090
:1049A000CD010196877099272091FD0128171906DE
:1049B00009F193E0AA0FBB1F9A95E1F7A354BE4FEC
:1049C00098E0FE01319601900D929A95E1F780935F
:1049D000BC010E94530B8091FD019091BC01891391
:1049E00017C060960FB6F894DEBF0FBECDBFDF9143
:1049F000CF9108950E94BA111092BC011092FD014E
:104A000088E0E4EBF1E0DF011D928A95E9F7E3CF5E
:104A1000B8E08B9FC001112483549E4F0E947C22DA
:104A20008823F9F28091FD0190E001968770992723
:104A30008093FD01D0CFEF92FF920F931F93CF93FE
:104A4000DF938091EC02882361F0C091EB028CE04F
:104A5000F82E8091EC02C81758F01092EC021092D8
:104A6000EB02DF91CF911F910F91FF90EF9008958E
:104A7000EE24E394EC0EE092EB020C2F10E0CF9DBD
:104A8000E0011124C351DD4F4B815C816981888134
:104A90000E94E40581111DC08E819F81892B21F424
:104AA00088859985019651F4288139814A815B81F5
:104AB0006C817D818E819F810E94A424F09EF001F3
:104AC000F19EF00D1124E351FD4F148213821092D8
:104AD000AA04CE2DBECF1092900310928F03109295
:104AE000190180918E0380938D030E941D060C9402
:104AF0001B253F924F925F926F927F928F929F926F
:104B0000AF92BF92CF92DF92EF92FF920F931F93DB
:104B1000CF93DF93C0918D0397E0892E01E010E0E1
:104B20002CE0322E3EEF932E4424439480918E034A
:104B30008C1315C00E941B25DF91CF911F910F91FF
:104B4000FF90EF90DF90CF90BF90AF909F908F90AD
:104B50007F906F905F904F903F900C941D06D0E037
:104B6000FE01EE0FFF1FEB57FC4F80819181889E65
:104B7000D001899EB00D1124A35BBC4F14962C91DB
:104B80001497211157C05090EC02EDEEF2E030E0A6
:104B900020E0712C5D01251508F04AC0E284F38401
:104BA000D501CD90DC906FEF7FEF612C462D50E06A
:104BB000DA01AA0FBB1FAC0DBD1D0D90BC91A02D3D
:104BC000109731F0EA16FB0609F4BA016394EECFB0
:104BD0006F3F7607A1F1D80102C0AA0FBB1F6A95EB
:104BE000E2F77A2AB80102C0660F771F6A94E2F7EB
:104BF000AB014150510974161506F9F4329EF001CB
:104C0000339EF00D1124E351FD4F889ED001899E03
:104C1000B00D1124A35BBC4F12962D913C911397BC
:104C200037832683908291829187808715964C9254
:104C30000E94EF052196C37079CF148213822F5FF3
:104C40003F4F3C96A8CF2F923F924F925F926F9228
:104C50007F928F929F92AF92BF92CF92DF92EF920C
:104C6000FF920F931F93CF93DF93CDB7DEB7699772
:104C70000FB6F894DEBF0FBECDBF942F498B252F02
:104C80005A8B6B8B7C8B8D8B4C895D89622F892F26
:104C90000E94E405811109C08091A3019091A401B3
:104CA00001969093A4018093A3018B8981111092A6
:104CB000AA041D861E861F86188A85E0FE0171964D
:104CC000DE01199601900D928A95E1F780917604A4
:104CD00082FD1EC08091930390919403892BC1F0B3
:104CE0000E94A0052091FF0130910002821B930BCE
:104CF00020919303309194038217930720F08091C1
:104D0000010282FFF5C10E94B40A81110E947A0A51
:104D10004C855D856A8589850E94E405811111C0F5
:104D200061E0CE0109960E94AA0D6C018B8527EFE8
:104D3000C2162CE5D20681F4882321F181E080930C
:104D4000190129853A854B855C856D857E858F8522
:104D500098890E94A424C5C038EFC3163CE5D30649
:104D600029F4882379F00E946B25EBCF49EFC41614
:104D70004CE5D40639F4882329F08091190181117A
:104D8000F2CFDCCF0DE413E0512CB12CA12C222466
:104D90002394312C2EEF422EF8014081518188243A
:104DA0008A94982C20E0822F90E0FC01EE0FFF1FE8
:104DB000E40FF51F608171816115710531F0C61630
:104DC000D70609F44C012F5FEECFF12CFFEF8F16C1
:104DD0009F0609F448C0F8014481F09019018F2D15
:104DE000411180E0F82FF170FF2EF801E5808681F7
:104DF0009B85992309F40CC1FF2009F409C1609037
:104E0000A7037090A803E11012C0A10101C0440FD4
:104E10008A94EAF7842B86838091E9029091EA02D2
:104E20008615970520F47092EA026092E902C101AA
:104E300002C0880F991F2A95E2F70197F801268191
:104E40002817190681F480918F03909190030097A1
:104E500009F460C00E9491056816790608F05AC0EE
:104E600021E0F80124835F28FFEFAF1ABF0A095F32
:104E70001F4F28E0A216B10409F08ECF8B8588233E
:104E800009F421C1552009F41EC10E94A005909388
:104E9000900380938F038091EC02883010F591E0AD
:104EA000980F9093EC0298E0FE013996DE0111967E
:104EB00001900D929A95E1F73CE0839FC001112487
:104EC00083519D4F28E0FE013196DC0101900D9247
:104ED0002A95E1F72FEF3FEFFC0131872087D3863A
:104EE000C28669960FB6F894DEBF0FBECDBFDF91C4
:104EF000CF911F910F91FF90EF90DF90CF90BF90D7
:104F0000AF909F908F907F906F905F904F903F9069
:104F10002F90089580918D0350918E03982FF0E08B
:104F2000E0E0851314C090938D03E017F10709F4B6
:104F30009ACF90E0FC01EE0FFF1FEB57FC4FB182C0
:104F4000A08201968370992780938E038CCF682E60
:104F5000712CF301EE0FFF1FEB57FC4F20813181C5
:104F600047E0429FD001439FB00D1124A35BBC4F8B
:104F70006D917C911197798F688F40E020E030E04F
:104F8000E32FF0E0EE0FFF1F688D798DE60FF71F1E
:104F90008080918081149104E1F0F8010190F0810A
:104FA000E02DFF8BEE8B20E005C08616970609F4F6
:104FB0004F2D2F5FE22FF0E0EE0FFF1F6E897F89EC
:104FC000E60FF71F608171816115710571F73F5F11
:104FD000D7CF4423D1F0F801231708F0FD0121E0D9
:104FE00024830E171F0721F490938D03F42E3BCFDB
:104FF000981305C0AE17BF0711F49F5F937093011C
:105000002F5F3F4F822F83708CCFF0E0E0E0F7CF2F
:1050100090E0E1101FC0B10102C0660F771F2A9512
:10502000E2F79B01215031098217930731F44423A1
:1050300009F447C0C5010E94EF05C10101C0880FF6
:105040008A94EAF7982F9095F801868189238683C0
:10505000FE2C09CF9C01082C02C0359527950A9497
:10506000E2F7A90141705527BC01615071098623FF
:105070009723892B11F5452B01F1F801828193814A
:10508000892BC1F01B821C821D821E8249824A82AA
:105090000E94A0058160582F9D838C83F801828136
:1050A00093818F83988729813A814B816D817E819D
:1050B0000E94A424F8011582C0CFF22FF170EF2EC8
:1050C000BCCFEF2CBACF90918D0380918E039817AF
:1050D00031F00E947925552009F433CE02CF0E9489
:1050E0001B251092900310928F030E941D06F3CF90
:1050F00082E00E94641107CECF93DF9300D000D0EE
:105100000F92CDB7DEB79093C1028093C002811594
:1051100020E2920748F40F900F900F900F900F909D
:10512000DF91CF910C9477168EEF89838A831B824F
:105130000E94A0058160782F9D838C8349815A81CC
:105140006B818D810F900F900F900F900F90DF91DA
:10515000CF910C9423260F931F93CF93DF938C0151
:10516000EB0164E672E08C2F0E94970E892BA1F46C
:105170008091AF039091B0030E94BD0CDD27C45A0B
:10518000DD4F8881F80110821882833009F148F4DC
:10519000813059F0823081F0DF91CF911F910F91D2
:1051A00008958430D1F08530B9F7809164029091F0
:1051B0006502009789F306C08091660290916702AC
:1051C000009799F3DF91CF911F910F910C947C2858
:1051D0008091680290916902F3CF80916A02909168
:1051E0006B02009779F720916402309165028091FB
:1051F00066029091670221153105D9F2009711F7E7
:10520000C901E0CFCF93DF9300D000D00F92CDB78C
:10521000DEB79093C1028093C002811520E292070D
:1052200048F40F900F900F900F900F90DF91CF9157
:105230000C9470188EEF89838A8381E08B830E949F
:10524000A0058160782F9D838C8349815A816B8171
:105250008D810F900F900F900F900F90DF91CF9155
:105260000C942326CF93DF93EC010E9402298091B6
:10527000AF039091B0030E94BD0CCE01DF91CF919E
:105280000C947C280F931F93CF93DF938C01862F70
:1052900064E672E00E94970E892BC9F4C091640203
:1052A000D0916502209799F0F8018081833069F4EC
:1052B000CE010E943229CE010E943229CE01DF9117
:1052C000CF911F910F910C9432298430B8F7DF9160
:1052D000CF911F910F9108950F931F93CF93DF9359
:1052E0008C01EB0164E672E08C2F0E94970E892BF3
:1052F00009F064C0FE01FF27D8018C91E45AFD4FEC
:105300008130D9F419969C911997992311F08083D3
:105310000CC01A969C919923D1F382E080838091EE
:105320006602909167020097D9F48091640290918F
:105330006502009709F442C013C08230E9F519965E
:105340008C91199781112DC01A968C9181110EC0E4
:1053500083E080838091680290916902009719F13F
:10536000DF91CF911F910F910C94022984E08083EB
:1053700080916A0290916B02009791F7809164028C
:10538000909165020097F9F00E943229809166029F
:1053900090916702009721F78091640290916502D5
:1053A000DFCF85E080838091640290916502009751
:1053B00029F00E943229F0CF86E08083DF91CF91DF
:1053C0001F910F9108958091660290916702B1CF6D
:1053D0001F920F920FB60F9211242F933F934F936A
:1053E0005F936F937F938F939F93AF93BF93CF936D
:1053F000DF93EF93FF93D091E900DF708091EC0091
:10540000C82FC17080FDC0E81092E9008091F000C3
:10541000877F8093F00078940E94CF111092E9006A
:105420008091F00088608093F000CD2BCF70C09306
:10543000E900FF91EF91DF91CF91BF91AF919F91E3
:105440008F917F916F915F914F913F912F910F902D
:105450000FBE0F901F9018951F920F920FB60F92CC
:1054600011242F933F934F935F936F937F938F9369
:105470009F93AF93BF93EF93FF938091E10082FFDF
:1054800009C08091E20082FF05C08091E1008B7F1E
:105490008093E1008091DA0080FF24C08091D800E1
:1054A00080FF20C08091DA008E7F8093DA008091A7
:1054B000D90080FF9DC080E189BD82E189BD09B42A
:1054C00000FEFDCF81E08093A80480917A048111D1
:1054D00009C00E94DB030E94CE048091E200846038
:1054E0008093E2008091E10080FF17C08091E2008C
:1054F00080FF13C08091E2008E7F8093E200809154
:10550000E20080618093E2008091D8008062809305
:10551000D80019BC85E08093A8048091E10084FF45
:105520002BC08091E20084FF27C080E189BD82E129
:1055300089BD89B5982F917080FFFBCF8091D800ED
:105540008F7D8093D8008091E1008F7E8093E10071
:105550008091E2008F7E8093E2008091E200816082
:105560008093E20080919F04882309F447C084E07F
:105570008093A8048091A8048091E10083FF27C054
:105580008091E20083FF23C08091E100877F8093B8
:10559000E10082E08093A80410929F048091E100D2
:1055A0008E7F8093E1008091E2008E7F8093E20005
:1055B0008091E20080618093E20042E060E080E060
:1055C0000E949C048091F00088608093F000FF911D
:1055D000EF91BF91AF919F918F917F916F915F916B
:1055E0004F913F912F910F900FBE0F901F901895E4
:1055F00019BC1092A80410927A0474CF8091E30031
:1056000087FD93E09093A804B5CF78941F921FB6BE
:105610001F9211248F939F93AF93BF938091710436
:1056200090917204A0917304B09174040196A11D2D
:10563000B11D8093710490937204A0937304B0938E
:105640007404BF91AF919F918F911F901FBE1F90C7
:1056500018951F921FB61F9211248F939F93AF939B
:10566000BF9380917004811113C080917104909157
:105670007204A0917304B09174044196A11DB11DF0
:105680008093710490937204A0937304B093740494
:10569000BF91AF919F918F911F901FBE1F90189542
:1056A000CDB7DEB7E4970FB6F894DEBF0FBECDBF1F
:1056B00084B7877F84BF0FB6F894A8958091600067
:1056C000886180936000109260000FBE80E890E0D7
:1056D0000FB6F89480936100909361000FBE85B778
:1056E000806885BF85B7806885BF86E998E090931C
:1056F0007301809372010E94AB0E0E94010F0E9401
:10570000C70C0E94DB030E94CE048091E2008460FB
:105710008093E20078948091A8048823A1F01091EE
:10572000E9001F709091EC00892F817090FD80E856
:10573000182B1092E9008091E80083FD0E94CF11A0
:105740001F701093E90082E084BD93E095BD9AEF4D
:1057500097BD80936E000E94B80D811102C00E9417
:105760007A1587E90E94980885E30E94980884E3E7
:105770000E94980886EC0E94980808E511E072E6FD
:10578000E72E71E0F72ED8018D918D018F3F11F03A
:105790000E949808E016F106B1F788E0E7E4F2E02D
:1057A000DF01282F1D922A95E9F7E9E2F2E0DF01F7
:1057B0001D928A95E9F790E080E00E94FB32893ED5
:1057C0009E4F21F40E94B80D811102C00E9457190A
:1057D00082E090E00E94F332809331020E94D10D6A
:1057E00090937604809375040E945A0FEFE3FCE9CE
:1057F0003197F1F700C000000E945A0F80914702D4
:1058000080FF08C06FEF7FEF90E080E00E941F33C1
:105810000E94990C83E090E00E94F3320E94B6113E
:1058200080E091E090936D0480936C048E010F5F93
:105830001F4F8091A80450E1E52E62E1F62E8530DD
:1058400009F453C10E945A0F882359F08FB7F89476
:1058500040917104509172046091730470917404CA
:105860008FBFA7E4B2E0E2E3F2E0F12CE12C7E2D61
:105870008D919D91219131912817390709F445C1E6
:105880002827392760E0CC24C394D12CA6014223D9
:105890005323452B09F433C16BA77CA7960128231A
:1058A000392391E0232B09F490E09DA70E94A005E5
:1058B0008160782F9FA78EA74BA55CA56DA58FA5AE
:1058C0000E942326F701EE0FFF1FEE5CFD4F808143
:1058D0009181C826D926D182C08280910C019091F5
:1058E0000D01F12CE6E1EE2E019609F056C18091F2
:1058F000190181115CC18091AC0380FF1EC08091B1
:10590000180182FF1AC00E94A0052091E502309183
:10591000E602AC01421B530B209116013091170196
:105920004217530750F02AE332E041E0BC01809176
:10593000E7029091E8020E949B1886E0E6E5F2E01B
:10594000D80101900D928A95E1F7C0905802D0904D
:105950005902E0905A02F0905B02109258021092A5
:10596000590210925A0210925B028C2D8D2991F0EF
:1059700080915402909155020E949105AC01909142
:105980005002992309F43EC1809114018417150631
:1059900008F446C18E2D8F2991F08091520290918A
:1059A00053020E949105AC0190914F02992309F492
:1059B00076C1809110018417150608F47EC180918C
:1059C000580290915902892B90915A02892B9091FB
:1059D0005B02892B11F00E94EC0686E0F801A6E537
:1059E000B2E001900D928A95E1F70E94D80590915E
:1059F00042028913809342028091A804843009F006
:105A000018CF83E08093E9008091E80082FF11CFF6
:105A10008091E80090E085FF0AC00E94FA0370E2DE
:105A2000C72ED12C7801882309F490C191E0809190
:105A3000E8008B778093E800992309F4FACEE09090
:105A4000C202F090C3028981E114F10409F48CC10F
:105A50008E3F09F016C28A81833020F08550833052
:105A600008F00FC2EA81EE3008F00BC2F0E0EB5A0A
:105A7000FC4C0C94B0328091A804843021F1109237
:105A8000700428E130E040E40FB6F894A895209324
:105A900060000FBE4093600083B7817F846083BF46
:105AA00083B7816083BF7894889583B78E7F83BFE7
:105AB0000FB6F894A895809160008861809360008B
:105AC000109260000FBE80919E04882371F00E94A6
:105AD0005A0FE7E4F2E081919191892B09F0CCC44F
